{
  "contractName": "KSEAirdrop",
  "abi": [
    {
      "inputs": [
        {
          "internalType": "address",
          "name": "_dobbyToken",
          "type": "address"
        }
      ],
      "payable": false,
      "stateMutability": "nonpayable",
      "type": "constructor"
    },
    {
      "anonymous": false,
      "inputs": [
        {
          "indexed": true,
          "internalType": "address",
          "name": "_boardMember",
          "type": "address"
        },
        {
          "indexed": true,
          "internalType": "bool",
          "name": "_flag",
          "type": "bool"
        }
      ],
      "name": "DeregisteredBoardMember",
      "type": "event"
    },
    {
      "anonymous": false,
      "inputs": [
        {
          "indexed": true,
          "internalType": "address",
          "name": "_to",
          "type": "address"
        },
        {
          "indexed": false,
          "internalType": "uint256",
          "name": "_value",
          "type": "uint256"
        }
      ],
      "name": "EtherFailedTransfer",
      "type": "event"
    },
    {
      "anonymous": false,
      "inputs": [
        {
          "indexed": true,
          "internalType": "address",
          "name": "_to",
          "type": "address"
        },
        {
          "indexed": false,
          "internalType": "uint256",
          "name": "_value",
          "type": "uint256"
        }
      ],
      "name": "EtherTransferredToken",
      "type": "event"
    },
    {
      "anonymous": false,
      "inputs": [
        {
          "indexed": true,
          "internalType": "address",
          "name": "_to",
          "type": "address"
        },
        {
          "indexed": false,
          "internalType": "uint256",
          "name": "_value",
          "type": "uint256"
        }
      ],
      "name": "FailedTransfer",
      "type": "event"
    },
    {
      "anonymous": false,
      "inputs": [
        {
          "indexed": true,
          "internalType": "address",
          "name": "_boardMember",
          "type": "address"
        },
        {
          "indexed": true,
          "internalType": "bool",
          "name": "_flag",
          "type": "bool"
        }
      ],
      "name": "RegisteredBoardMember",
      "type": "event"
    },
    {
      "anonymous": false,
      "inputs": [
        {
          "indexed": true,
          "internalType": "address",
          "name": "_to",
          "type": "address"
        },
        {
          "indexed": false,
          "internalType": "uint256",
          "name": "_value",
          "type": "uint256"
        }
      ],
      "name": "TransferredToken",
      "type": "event"
    },
    {
      "constant": true,
      "inputs": [],
      "name": "owner",
      "outputs": [
        {
          "internalType": "address payable",
          "name": "",
          "type": "address"
        }
      ],
      "payable": false,
      "stateMutability": "view",
      "type": "function"
    },
    {
      "constant": false,
      "inputs": [
        {
          "internalType": "address payable",
          "name": "newOwner",
          "type": "address"
        }
      ],
      "name": "transferOwnership",
      "outputs": [],
      "payable": false,
      "stateMutability": "nonpayable",
      "type": "function"
    },
    {
      "constant": false,
      "inputs": [
        {
          "internalType": "address",
          "name": "_boardMember",
          "type": "address"
        }
      ],
      "name": "registerBoardMember",
      "outputs": [],
      "payable": false,
      "stateMutability": "nonpayable",
      "type": "function"
    },
    {
      "constant": false,
      "inputs": [
        {
          "internalType": "address",
          "name": "_boardMember",
          "type": "address"
        }
      ],
      "name": "deregisterBoardMember",
      "outputs": [],
      "payable": false,
      "stateMutability": "nonpayable",
      "type": "function"
    },
    {
      "constant": true,
      "inputs": [
        {
          "internalType": "address",
          "name": "_boardMember",
          "type": "address"
        }
      ],
      "name": "isBoardMember",
      "outputs": [
        {
          "internalType": "bool",
          "name": "",
          "type": "bool"
        }
      ],
      "payable": false,
      "stateMutability": "view",
      "type": "function"
    },
    {
      "constant": false,
      "inputs": [
        {
          "internalType": "address[]",
          "name": "_members",
          "type": "address[]"
        },
        {
          "internalType": "uint256",
          "name": "_value",
          "type": "uint256"
        }
      ],
      "name": "distributeDobbyTokens",
      "outputs": [],
      "payable": false,
      "stateMutability": "nonpayable",
      "type": "function"
    },
    {
      "constant": false,
      "inputs": [
        {
          "internalType": "address payable[]",
          "name": "_members",
          "type": "address[]"
        }
      ],
      "name": "distributeEther",
      "outputs": [],
      "payable": true,
      "stateMutability": "payable",
      "type": "function"
    }
  ],
  "bytecode": "0x608060405234801561001057600080fd5b50604051610dbf380380610dbf8339818101604052602081101561003357600080fd5b8101908080519060200190929190505050336000806101000a81548173ffffffffffffffffffffffffffffffffffffffff021916908373ffffffffffffffffffffffffffffffffffffffff16021790555080600160006101000a81548173ffffffffffffffffffffffffffffffffffffffff021916908373ffffffffffffffffffffffffffffffffffffffff16021790555050610cea806100d56000396000f3fe6080604052600436106100705760003560e01c806371942a011161004e57806371942a01146101cf5780638b6cb1a4146102385780638da5cb5b14610289578063f2fde38b146102e057610070565b80632226df80146100755780633c0ff791146101055780636c2a51aa1461017e575b600080fd5b34801561008157600080fd5b506101036004803603604081101561009857600080fd5b81019080803590602001906401000000008111156100b557600080fd5b8201836020820111156100c757600080fd5b803590602001918460208302840111640100000000831117156100e957600080fd5b909192939192939080359060200190929190505050610331565b005b61017c6004803603602081101561011b57600080fd5b810190808035906020019064010000000081111561013857600080fd5b82018360208201111561014a57600080fd5b8035906020019184602083028401116401000000008311171561016c57600080fd5b9091929391929390505050610409565b005b34801561018a57600080fd5b506101cd600480360360208110156101a157600080fd5b81019080803573ffffffffffffffffffffffffffffffffffffffff169060200190929190505050610529565b005b3480156101db57600080fd5b5061021e600480360360208110156101f257600080fd5b81019080803573ffffffffffffffffffffffffffffffffffffffff16906020019092919050505061068d565b604051808215151515815260200191505060405180910390f35b34801561024457600080fd5b506102876004803603602081101561025b57600080fd5b81019080803573ffffffffffffffffffffffffffffffffffffffff1690602001909291905050506106e3565b005b34801561029557600080fd5b5061029e610847565b604051808273ffffffffffffffffffffffffffffffffffffffff1673ffffffffffffffffffffffffffffffffffffffff16815260200191505060405180910390f35b3480156102ec57600080fd5b5061032f6004803603602081101561030357600080fd5b81019080803573ffffffffffffffffffffffffffffffffffffffff16906020019092919050505061086c565b005b6001151561033e3361068d565b1515146103b3576040517f08c379a000000000000000000000000000000000000000000000000000000000815260040180806020018281038252601d8152602001807f596f7520617265206e6f742074686520626f617264206d656d6265722100000081525060200191505060405180910390fd5b60008090505b83839050811015610403576103f68484838181106103d357fe5b9050602002013573ffffffffffffffffffffffffffffffffffffffff16836109ab565b80806001019150506103b9565b50505050565b60008090505b828290508110156105245782828281811061042657fe5b9050602002013573ffffffffffffffffffffffffffffffffffffffff1673ffffffffffffffffffffffffffffffffffffffff166108fc84849050348161046857fe5b049081150290604051600060405180830381858888f19350505050158015610494573d6000803e3d6000fd5b508282828181106104a157fe5b9050602002013573ffffffffffffffffffffffffffffffffffffffff1673ffffffffffffffffffffffffffffffffffffffff167f4f1ec7b3ae22e95c22a894273f2833cbf773bea02a82cc6a9b442b6a54e3cacc84849050348161050157fe5b046040518082815260200191505060405180910390a2808060010191505061040f565b505050565b6000809054906101000a900473ffffffffffffffffffffffffffffffffffffffff1673ffffffffffffffffffffffffffffffffffffffff163373ffffffffffffffffffffffffffffffffffffffff16146105eb576040517f08c379a000000000000000000000000000000000000000000000000000000000815260040180806020018281038252601c8152602001807f4f776e61626c653a2063616c6c6572206973206e6f74206f776e65720000000081525060200191505060405180910390fd5b6001600260008373ffffffffffffffffffffffffffffffffffffffff1673ffffffffffffffffffffffffffffffffffffffff16815260200190815260200160002060006101000a81548160ff021916908315150217905550600115158173ffffffffffffffffffffffffffffffffffffffff167fe5d5c64157417aca4696b40e8384841fcb830a4e16c6be81c20e7191bec6d58260405160405180910390a350565b6000600260008373ffffffffffffffffffffffffffffffffffffffff1673ffffffffffffffffffffffffffffffffffffffff16815260200190815260200160002060009054906101000a900460ff169050919050565b6000809054906101000a900473ffffffffffffffffffffffffffffffffffffffff1673ffffffffffffffffffffffffffffffffffffffff163373ffffffffffffffffffffffffffffffffffffffff16146107a5576040517f08c379a000000000000000000000000000000000000000000000000000000000815260040180806020018281038252601c8152602001807f4f776e61626c653a2063616c6c6572206973206e6f74206f776e65720000000081525060200191505060405180910390fd5b6000600260008373ffffffffffffffffffffffffffffffffffffffff1673ffffffffffffffffffffffffffffffffffffffff16815260200190815260200160002060006101000a81548160ff021916908315150217905550600115158173ffffffffffffffffffffffffffffffffffffffff167fad14f647fedc40d55fb9014869c2c18383f928a22ff9afcc65ee29cf9aeaa48160405160405180910390a350565b6000809054906101000a900473ffffffffffffffffffffffffffffffffffffffff1681565b6000809054906101000a900473ffffffffffffffffffffffffffffffffffffffff1673ffffffffffffffffffffffffffffffffffffffff163373ffffffffffffffffffffffffffffffffffffffff161461092e576040517f08c379a000000000000000000000000000000000000000000000000000000000815260040180806020018281038252601c8152602001807f4f776e61626c653a2063616c6c6572206973206e6f74206f776e65720000000081525060200191505060405180910390fd5b600073ffffffffffffffffffffffffffffffffffffffff168173ffffffffffffffffffffffffffffffffffffffff16141561096857600080fd5b806000806101000a81548173ffffffffffffffffffffffffffffffffffffffff021916908373ffffffffffffffffffffffffffffffffffffffff16021790555050565b600073ffffffffffffffffffffffffffffffffffffffff168273ffffffffffffffffffffffffffffffffffffffff1614156109e557610baf565b806109ee610bb3565b10610b5f57600160009054906101000a900473ffffffffffffffffffffffffffffffffffffffff1673ffffffffffffffffffffffffffffffffffffffff166323b872dd3384846040518463ffffffff1660e01b8152600401808473ffffffffffffffffffffffffffffffffffffffff1673ffffffffffffffffffffffffffffffffffffffff1681526020018373ffffffffffffffffffffffffffffffffffffffff1673ffffffffffffffffffffffffffffffffffffffff1681526020018281526020019350505050602060405180830381600087803b158015610ad057600080fd5b505af1158015610ae4573d6000803e3d6000fd5b505050506040513d6020811015610afa57600080fd5b8101908080519060200190929190505050508173ffffffffffffffffffffffffffffffffffffffff167f69baa4ba19fc045bffcd13735ba5201d924fe4c49c78c2e214b8f2559044d8b1826040518082815260200191505060405180910390a2610bae565b8173ffffffffffffffffffffffffffffffffffffffff167f3506b32cea6b36a739c1c2a71a9e1b3d6222104389c07219059fa6eb6d2e0563826040518082815260200191505060405180910390a25b5b5050565b6000600160009054906101000a900473ffffffffffffffffffffffffffffffffffffffff1673ffffffffffffffffffffffffffffffffffffffff166370a082316000809054906101000a900473ffffffffffffffffffffffffffffffffffffffff166040518263ffffffff1660e01b8152600401808273ffffffffffffffffffffffffffffffffffffffff1673ffffffffffffffffffffffffffffffffffffffff16815260200191505060206040518083038186803b158015610c7557600080fd5b505afa158015610c89573d6000803e3d6000fd5b505050506040513d6020811015610c9f57600080fd5b810190808051906020019092919050505090509056fea265627a7a72315820387e388cb737394b6fb8992bf3cd87309b56337f4d8bf34a96cc1a626c86c87164736f6c63430005100032",
  "source": "// SPDX-License-Identifier: UNLICENSED\r\npragma solidity >= 0.5.0 < 0.7.0;\r\n\r\n// import \"../../KSEAToken/contracts/SafeMath.sol\";\r\n// import \"../../KSEAToken/contracts/EIP20Interface.sol\";\r\nimport \"../../KSEAToken/contracts/KSEAToken.sol\";\r\n\r\ncontract Ownable {\r\n\r\n  address payable public owner;\r\n\r\n  constructor() public {\r\n    owner = msg.sender;\r\n  }\r\n\r\n  modifier onlyOwner() {\r\n    require(msg.sender == owner, \"Ownable: caller is not owner\");\r\n    _;\r\n  }\r\n\r\n  function transferOwnership(address payable newOwner) onlyOwner public {\r\n    require(newOwner != address(0));\r\n    owner = newOwner;\r\n  }\r\n}\r\n\r\ncontract KSEAirdrop is Ownable {\r\n    using SafeMath for uint256;\r\n\r\n    // DobbyFactory private dobbyFactory;\r\n    EIP20Interface private dobbyToken;\r\n    // EIP20Interface private semesterToken;\r\n\r\n    // Board Member mapping set up\r\n    mapping (address => bool) private boardMembers;\r\n\r\n    //event section\r\n    event RegisteredBoardMember(address indexed _boardMember, bool indexed _flag);\r\n    event DeregisteredBoardMember(address indexed _boardMember, bool indexed _flag);\r\n    event TransferredToken(address indexed _to, uint256 _value);\r\n    event FailedTransfer(address indexed _to, uint256 _value);\r\n    event EtherTransferredToken(address indexed _to, uint256 _value);\r\n    event EtherFailedTransfer(address indexed _to, uint256 _value);\r\n\r\n    constructor(address _dobbyToken) public {\r\n        dobbyToken = EIP20Interface(_dobbyToken);\r\n    }\r\n\r\n    // Register board member and emit Registered Board Member event\r\n    function registerBoardMember(address _boardMember) onlyOwner external {\r\n        boardMembers[_boardMember] = true;\r\n        emit RegisteredBoardMember(_boardMember, true);\r\n    }\r\n\r\n    // Deregister board member and emit Registered Board Member event\r\n    function deregisterBoardMember(address _boardMember) onlyOwner external {\r\n        boardMembers[_boardMember] = false;\r\n        emit DeregisteredBoardMember(_boardMember, true);\r\n    }\r\n\r\n    // Check if address corresponds to a Board Member\r\n    // TODO: This is currently a hack using Solidity internals\r\n    function isBoardMember(address _boardMember) public view returns (bool) {\r\n        return boardMembers[_boardMember]; // Notice Solidity initializes maps with False\r\n    }\r\n\r\n    // Distribute tokens to a list of members\r\n    function distributeDobbyTokens(address[] calldata _members, uint256 _value) external {\r\n        require(isBoardMember(msg.sender) == true, \"You are not the board member!\");\r\n        for (uint i = 0; i < _members.length; i++) {\r\n            sendInternallyDobby(_members[i], _value);\r\n        }\r\n    }\r\n\r\n\r\n    function distributeEther(address payable[] calldata _members) external payable { \r\n        for (uint i = 0; i < _members.length; i++) {\r\n            _members[i].transfer(msg.value / _members.length);\r\n            emit EtherTransferredToken(_members[i], msg.value / _members.length);\r\n        } \r\n    }\r\n\r\n    // Distribute Dobby to one recipient\r\n    function sendInternallyDobby(address recipient, uint256 tokensToSend) internal {\r\n        if (recipient == address(0)) return;\r\n        if (tokensAvailable() >= tokensToSend) {\r\n            dobbyToken.transferFrom(msg.sender, recipient, tokensToSend);\r\n            emit TransferredToken(recipient, tokensToSend);\r\n        } else {\r\n            emit FailedTransfer(recipient, tokensToSend);\r\n        }\r\n    }\r\n\r\n    // Check how much tokens are currently available\r\n    function tokensAvailable() view internal returns (uint256) {\r\n        return dobbyToken.balanceOf(owner);\r\n    }\r\n\r\n    // function payMe() public payable { \r\n    // }\r\n}\r\n",
  "sourcePath": "C:\\Users\\iskys\\Desktop\\project-dev\\ksea\\ksea-token\\KSEAirdrop\\contracts\\KSEAirdrop.sol",
  "compiler": {
    "name": "solc",
    "version": "0.5.16+commit.9c3226ce.Emscripten.clang"
  },
  "schemaVersion": "3.2.2",
  "updatedAt": "2020-11-09T03:30:36.247Z",
  "networkType": "ethereum",
  "devdoc": {
    "methods": {}
  },
  "userdoc": {
    "methods": {}
  }
}