{
  "contractName": "KSEAuction",
  "abi": [
    {
      "inputs": [
        {
          "internalType": "uint256",
          "name": "_biddingTime",
          "type": "uint256"
        },
        {
          "internalType": "address",
          "name": "_dobbyToken",
          "type": "address"
        }
      ],
      "payable": false,
      "stateMutability": "nonpayable",
      "type": "constructor"
    },
    {
      "anonymous": false,
      "inputs": [
        {
          "indexed": false,
          "internalType": "address",
          "name": "winner",
          "type": "address"
        },
        {
          "indexed": false,
          "internalType": "uint256",
          "name": "amount",
          "type": "uint256"
        }
      ],
      "name": "AuctionEnded",
      "type": "event"
    },
    {
      "anonymous": false,
      "inputs": [
        {
          "indexed": false,
          "internalType": "address",
          "name": "bidder",
          "type": "address"
        },
        {
          "indexed": false,
          "internalType": "uint256",
          "name": "amount",
          "type": "uint256"
        }
      ],
      "name": "HighestBidIncreased",
      "type": "event"
    },
    {
      "constant": true,
      "inputs": [],
      "name": "auctionEndTime",
      "outputs": [
        {
          "internalType": "uint256",
          "name": "",
          "type": "uint256"
        }
      ],
      "payable": false,
      "stateMutability": "view",
      "type": "function"
    },
    {
      "constant": true,
      "inputs": [
        {
          "internalType": "address",
          "name": "",
          "type": "address"
        }
      ],
      "name": "bids",
      "outputs": [
        {
          "internalType": "uint256",
          "name": "",
          "type": "uint256"
        }
      ],
      "payable": false,
      "stateMutability": "view",
      "type": "function"
    },
    {
      "constant": true,
      "inputs": [],
      "name": "highestBid",
      "outputs": [
        {
          "internalType": "uint256",
          "name": "",
          "type": "uint256"
        }
      ],
      "payable": false,
      "stateMutability": "view",
      "type": "function"
    },
    {
      "constant": true,
      "inputs": [],
      "name": "highestBidder",
      "outputs": [
        {
          "internalType": "address",
          "name": "",
          "type": "address"
        }
      ],
      "payable": false,
      "stateMutability": "view",
      "type": "function"
    },
    {
      "constant": true,
      "inputs": [],
      "name": "owner",
      "outputs": [
        {
          "internalType": "address payable",
          "name": "",
          "type": "address"
        }
      ],
      "payable": false,
      "stateMutability": "view",
      "type": "function"
    },
    {
      "constant": false,
      "inputs": [
        {
          "internalType": "address payable",
          "name": "newOwner",
          "type": "address"
        }
      ],
      "name": "transferOwnership",
      "outputs": [],
      "payable": false,
      "stateMutability": "nonpayable",
      "type": "function"
    },
    {
      "constant": false,
      "inputs": [
        {
          "internalType": "uint256",
          "name": "_amount",
          "type": "uint256"
        }
      ],
      "name": "bid",
      "outputs": [],
      "payable": false,
      "stateMutability": "nonpayable",
      "type": "function"
    },
    {
      "constant": false,
      "inputs": [],
      "name": "withdraw",
      "outputs": [
        {
          "internalType": "bool",
          "name": "",
          "type": "bool"
        }
      ],
      "payable": false,
      "stateMutability": "nonpayable",
      "type": "function"
    },
    {
      "constant": false,
      "inputs": [],
      "name": "auctionEnd",
      "outputs": [],
      "payable": false,
      "stateMutability": "nonpayable",
      "type": "function"
    },
    {
      "constant": true,
      "inputs": [],
      "name": "getTotalBids",
      "outputs": [
        {
          "internalType": "uint256",
          "name": "",
          "type": "uint256"
        }
      ],
      "payable": false,
      "stateMutability": "view",
      "type": "function"
    }
  ],
  "bytecode": "0x608060405234801561001057600080fd5b506040516110173803806110178339818101604052604081101561003357600080fd5b810190808051906020019092919080519060200190929190505050336000806101000a81548173ffffffffffffffffffffffffffffffffffffffff021916908373ffffffffffffffffffffffffffffffffffffffff16021790555081420160028190555080600160006101000a81548173ffffffffffffffffffffffffffffffffffffffff021916908373ffffffffffffffffffffffffffffffffffffffff1602179055505050610f2e806100e96000396000f3fe608060405234801561001057600080fd5b506004361061009e5760003560e01c80638da5cb5b116100665780638da5cb5b1461017357806391f90157146101bd578063d57bde7914610207578063dcc70b9a14610225578063f2fde38b146102435761009e565b80632a24f46c146100a35780633ccfd60b146100ad578063454a2ab3146100cf5780634b449cba146100fd57806362ea82db1461011b575b600080fd5b6100ab610287565b005b6100b561054d565b604051808215151515815260200191505060405180910390f35b6100fb600480360360208110156100e557600080fd5b81019080803590602001909291905050506106ce565b005b610105610ac4565b6040518082815260200191505060405180910390f35b61015d6004803603602081101561013157600080fd5b81019080803573ffffffffffffffffffffffffffffffffffffffff169060200190929190505050610aca565b6040518082815260200191505060405180910390f35b61017b610ae2565b604051808273ffffffffffffffffffffffffffffffffffffffff1673ffffffffffffffffffffffffffffffffffffffff16815260200191505060405180910390f35b6101c5610b07565b604051808273ffffffffffffffffffffffffffffffffffffffff1673ffffffffffffffffffffffffffffffffffffffff16815260200191505060405180910390f35b61020f610b2d565b6040518082815260200191505060405180910390f35b61022d610b33565b6040518082815260200191505060405180910390f35b6102856004803603602081101561025957600080fd5b81019080803573ffffffffffffffffffffffffffffffffffffffff169060200190929190505050610c14565b005b6002544210156102ff576040517f08c379a00000000000000000000000000000000000000000000000000000000081526004018080602001828103825260168152602001807f41756374696f6e206e6f742079657420656e6465642e0000000000000000000081525060200191505060405180910390fd5b600460149054906101000a900460ff1615610365576040517f08c379a0000000000000000000000000000000000000000000000000000000008152600401808060200182810382526023815260200180610ed76023913960400191505060405180910390fd5b6001600460146101000a81548160ff0219169083151502179055507fdaec4582d5d9595688c8c98545fdd1c696d41c6aeaeb636737e84ed2f5c00eda600460009054906101000a900473ffffffffffffffffffffffffffffffffffffffff16600354604051808373ffffffffffffffffffffffffffffffffffffffff1673ffffffffffffffffffffffffffffffffffffffff1681526020018281526020019250505060405180910390a1600160009054906101000a900473ffffffffffffffffffffffffffffffffffffffff1673ffffffffffffffffffffffffffffffffffffffff166323b872dd306000809054906101000a900473ffffffffffffffffffffffffffffffffffffffff166003546040518463ffffffff1660e01b8152600401808473ffffffffffffffffffffffffffffffffffffffff1673ffffffffffffffffffffffffffffffffffffffff1681526020018373ffffffffffffffffffffffffffffffffffffffff1673ffffffffffffffffffffffffffffffffffffffff1681526020018281526020019350505050602060405180830381600087803b15801561050f57600080fd5b505af1158015610523573d6000803e3d6000fd5b505050506040513d602081101561053957600080fd5b810190808051906020019092919050505050565b600080600660003373ffffffffffffffffffffffffffffffffffffffff1673ffffffffffffffffffffffffffffffffffffffff16815260200190815260200160002054905060008111156106c6576000600660003373ffffffffffffffffffffffffffffffffffffffff1673ffffffffffffffffffffffffffffffffffffffff16815260200190815260200160002081905550600160009054906101000a900473ffffffffffffffffffffffffffffffffffffffff1673ffffffffffffffffffffffffffffffffffffffff1663a9059cbb33836040518363ffffffff1660e01b8152600401808373ffffffffffffffffffffffffffffffffffffffff1673ffffffffffffffffffffffffffffffffffffffff16815260200182815260200192505050602060405180830381600087803b15801561068957600080fd5b505af115801561069d573d6000803e3d6000fd5b505050506040513d60208110156106b357600080fd5b8101908080519060200190929190505050505b600191505090565b600254421115610746576040517f08c379a00000000000000000000000000000000000000000000000000000000081526004018080602001828103825260168152602001807f41756374696f6e20616c726561647920656e6465642e0000000000000000000081525060200191505060405180910390fd5b60035481116107bd576040517f08c379a000000000000000000000000000000000000000000000000000000000815260040180806020018281038252601e8152602001807f546865726520616c7265616479206973206120686967686572206269642e000081525060200191505060405180910390fd5b6000600354146108395760035460066000600460009054906101000a900473ffffffffffffffffffffffffffffffffffffffff1673ffffffffffffffffffffffffffffffffffffffff1673ffffffffffffffffffffffffffffffffffffffff168152602001908152602001600020600082825401925050819055505b60011515600860003373ffffffffffffffffffffffffffffffffffffffff1673ffffffffffffffffffffffffffffffffffffffff16815260200190815260200160002060009054906101000a900460ff161515141561089d5761089b33610d53565b505b600160009054906101000a900473ffffffffffffffffffffffffffffffffffffffff1673ffffffffffffffffffffffffffffffffffffffff166323b872dd3330846040518463ffffffff1660e01b8152600401808473ffffffffffffffffffffffffffffffffffffffff1673ffffffffffffffffffffffffffffffffffffffff1681526020018373ffffffffffffffffffffffffffffffffffffffff1673ffffffffffffffffffffffffffffffffffffffff1681526020018281526020019350505050602060405180830381600087803b15801561097a57600080fd5b505af115801561098e573d6000803e3d6000fd5b505050506040513d60208110156109a457600080fd5b81019080805190602001909291905050505033600460006101000a81548173ffffffffffffffffffffffffffffffffffffffff021916908373ffffffffffffffffffffffffffffffffffffffff160217905550806003819055506001600860003373ffffffffffffffffffffffffffffffffffffffff1673ffffffffffffffffffffffffffffffffffffffff16815260200190815260200160002060006101000a81548160ff0219169083151502179055507ff4757a49b326036464bec6fe419a4ae38c8a02ce3e68bf0809674f6aab8ad3003382604051808373ffffffffffffffffffffffffffffffffffffffff1673ffffffffffffffffffffffffffffffffffffffff1681526020018281526020019250505060405180910390a150565b60025481565b60076020528060005260406000206000915090505481565b6000809054906101000a900473ffffffffffffffffffffffffffffffffffffffff1681565b600460009054906101000a900473ffffffffffffffffffffffffffffffffffffffff1681565b60035481565b6000600160009054906101000a900473ffffffffffffffffffffffffffffffffffffffff1673ffffffffffffffffffffffffffffffffffffffff166370a08231306040518263ffffffff1660e01b8152600401808273ffffffffffffffffffffffffffffffffffffffff1673ffffffffffffffffffffffffffffffffffffffff16815260200191505060206040518083038186803b158015610bd457600080fd5b505afa158015610be8573d6000803e3d6000fd5b505050506040513d6020811015610bfe57600080fd5b8101908080519060200190929190505050905090565b6000809054906101000a900473ffffffffffffffffffffffffffffffffffffffff1673ffffffffffffffffffffffffffffffffffffffff163373ffffffffffffffffffffffffffffffffffffffff1614610cd6576040517f08c379a000000000000000000000000000000000000000000000000000000000815260040180806020018281038252601c8152602001807f4f776e61626c653a2063616c6c6572206973206e6f74206f776e65720000000081525060200191505060405180910390fd5b600073ffffffffffffffffffffffffffffffffffffffff168173ffffffffffffffffffffffffffffffffffffffff161415610d1057600080fd5b806000806101000a81548173ffffffffffffffffffffffffffffffffffffffff021916908373ffffffffffffffffffffffffffffffffffffffff16021790555050565b600080600660008473ffffffffffffffffffffffffffffffffffffffff1673ffffffffffffffffffffffffffffffffffffffff1681526020019081526020016000205490506000811115610ecc576000600660003373ffffffffffffffffffffffffffffffffffffffff1673ffffffffffffffffffffffffffffffffffffffff16815260200190815260200160002081905550600160009054906101000a900473ffffffffffffffffffffffffffffffffffffffff1673ffffffffffffffffffffffffffffffffffffffff1663a9059cbb84836040518363ffffffff1660e01b8152600401808373ffffffffffffffffffffffffffffffffffffffff1673ffffffffffffffffffffffffffffffffffffffff16815260200182815260200192505050602060405180830381600087803b158015610e8f57600080fd5b505af1158015610ea3573d6000803e3d6000fd5b505050506040513d6020811015610eb957600080fd5b8101908080519060200190929190505050505b600191505091905056fe61756374696f6e456e642068617320616c7265616479206265656e2063616c6c65642ea265627a7a72315820f0ae135a52f75b8a39c078535e2d9b13e4730a8e033b8604a1ebf119cf2d1a4c64736f6c63430005100032",
  "source": "// SPDX-License-Identifier: UNLICENSED\r\npragma solidity >= 0.5.0 < 0.7.0;\r\n\r\nimport \"../../KSEAToken/contracts/KSEAToken.sol\";\r\nimport \"../../KSEAirdrop/contracts/KSEAirdrop.sol\";\r\n\r\n\r\ncontract KSEAuction is Ownable {\r\n    using SafeMath for uint256;\r\n\r\n    EIP20Interface private dobbyToken;\r\n\r\n    uint256 public auctionEndTime;\r\n    uint256 public highestBid;\r\n    address public highestBidder;\r\n    bool ended;\r\n\r\n    address[] bidders;\r\n\r\n    // Allowed withdrawals of previous bids\r\n    mapping(address => uint) pendingReturns;\r\n    mapping(address => uint) public bids;\r\n    mapping(address => bool) private bidChecker;\r\n\r\n    // modifier an_ongoing_auction() { require(now <= auction_end);\r\n    // _;\r\n    // }\r\n\r\n    event HighestBidIncreased(address bidder, uint amount);\r\n    event AuctionEnded(address winner, uint amount);\r\n\r\n    constructor(uint256 _biddingTime, address _dobbyToken) public {\r\n        auctionEndTime = block.timestamp + _biddingTime;\r\n        dobbyToken = EIP20Interface(_dobbyToken);\r\n    }\r\n\r\n    function bid(uint256 _amount) public {\r\n        require(\r\n            now <= auctionEndTime,\r\n            \"Auction already ended.\"\r\n        );\r\n\r\n        require(\r\n            _amount > highestBid,\r\n            \"There already is a higher bid.\"\r\n        );\r\n\r\n        if (highestBid != 0) {\r\n            // Sending back the money by simply using\r\n            // highestBidder.send(highestBid) is a security risk\r\n            // because it could execute an untrusted contract.\r\n            // It is always safer to let the recipients\r\n            // withdraw their money themselves.\r\n            pendingReturns[highestBidder] += highestBid;\r\n        }\r\n\r\n        if (bidChecker[msg.sender] == true) {\r\n          internalWithdraw(msg.sender);\r\n        }\r\n        dobbyToken.transferFrom(msg.sender, address(this), _amount);\r\n        highestBidder = msg.sender;\r\n        highestBid = _amount;\r\n        bidChecker[msg.sender] = true;\r\n        emit HighestBidIncreased(msg.sender, _amount);\r\n    }\r\n\r\n    function internalWithdraw(address member) internal returns (bool) {\r\n      uint amount = pendingReturns[member];\r\n      if (amount > 0) {\r\n          // It is important to set this to zero because the recipient\r\n          // can call this function again as part of the receiving call\r\n          // before `send` returns.\r\n          pendingReturns[msg.sender] = 0;\r\n          dobbyToken.transfer(member, amount);\r\n          /* TODO: Condition check */\r\n        //   if (!member.send(amount)) {\r\n        //       // No need to call throw here, just reset the amount owing\r\n        //       pendingReturns[member] = amount;\r\n        //       return false;\r\n        //   }\r\n      }\r\n      return true;\r\n    }\r\n\r\n    /// Withdraw a bid that was overbid.\r\n    function withdraw() public returns (bool) {\r\n        uint amount = pendingReturns[msg.sender];\r\n        if (amount > 0) {\r\n            // It is important to set this to zero because the recipient\r\n            // can call this function again as part of the receiving call\r\n            // before `send` returns.\r\n            pendingReturns[msg.sender] = 0;\r\n            dobbyToken.transfer(msg.sender, amount);\r\n\r\n            // if (!msg.sender.send(amount)) {\r\n            //     // No need to call throw here, just reset the amount owing\r\n            //     pendingReturns[msg.sender] = amount;\r\n            //     return false;\r\n            // }\r\n        }\r\n        return true;\r\n    }\r\n\r\n    /// End the auction and send the highest bid\r\n    /// to the beneficiary.\r\n    function auctionEnd() public {\r\n        // It is a good guideline to structure functions that interact\r\n        // with other contracts (i.e. they call functions or send Ether)\r\n        // into three phases:\r\n        // 1. checking conditions\r\n        // 2. performing actions (potentially changing conditions)\r\n        // 3. interacting with other contracts\r\n        // If these phases are mixed up, the other contract could call\r\n        // back into the current contract and modify the state or cause\r\n        // effects (ether payout) to be performed multiple times.\r\n        // If functions called internally include interaction with external\r\n        // contracts, they also have to be considered interaction with\r\n        // external contracts.\r\n\r\n        // 1. Conditions\r\n        require(now >= auctionEndTime, \"Auction not yet ended.\");\r\n        require(!ended, \"auctionEnd has already been called.\");\r\n\r\n        // 2. Effects\r\n        ended = true;\r\n        emit AuctionEnded(highestBidder, highestBid);\r\n\r\n        // 3. Interaction\r\n        dobbyToken.transferFrom(address(this), owner, highestBid);\r\n    }\r\n\r\n    function getTotalBids() public view returns (uint256) {\r\n        return dobbyToken.balanceOf(address(this));\r\n    }\r\n\r\n\r\n}\r\n",
  "sourcePath": "C:\\Users\\iskys\\Desktop\\project-dev\\ksea\\ksea-token\\KSEAuction\\contracts\\KSEAuction.sol",
  "compiler": {
    "name": "solc",
    "version": "0.5.16+commit.9c3226ce.Emscripten.clang"
  },
  "schemaVersion": "3.2.2",
  "updatedAt": "2020-11-14T15:05:41.506Z",
  "devdoc": {
    "methods": {}
  },
  "userdoc": {
    "methods": {
      "auctionEnd()": {
        "notice": "End the auction and send the highest bid to the beneficiary."
      },
      "withdraw()": {
        "notice": "Withdraw a bid that was overbid."
      }
    }
  }
}