{
  "contractName": "AuctionFactory",
  "abi": [
    {
      "constant": false,
      "inputs": [
        {
          "internalType": "string",
          "name": "_name",
          "type": "string"
        },
        {
          "internalType": "address",
          "name": "_dobbyToken",
          "type": "address"
        }
      ],
      "name": "createAuction",
      "outputs": [
        {
          "internalType": "bool",
          "name": "",
          "type": "bool"
        }
      ],
      "payable": false,
      "stateMutability": "nonpayable",
      "type": "function"
    },
    {
      "constant": true,
      "inputs": [
        {
          "internalType": "string",
          "name": "_name",
          "type": "string"
        }
      ],
      "name": "getAuctionAddr",
      "outputs": [
        {
          "internalType": "address",
          "name": "",
          "type": "address"
        }
      ],
      "payable": false,
      "stateMutability": "view",
      "type": "function"
    },
    {
      "constant": true,
      "inputs": [
        {
          "internalType": "string",
          "name": "_name",
          "type": "string"
        }
      ],
      "name": "getItemName",
      "outputs": [
        {
          "internalType": "string",
          "name": "",
          "type": "string"
        }
      ],
      "payable": false,
      "stateMutability": "view",
      "type": "function"
    }
  ],
  "bytecode": "0x608060405234801561001057600080fd5b50611828806100206000396000f3fe608060405234801561001057600080fd5b50600436106100415760003560e01c80639592c66614610046578063cadcff3b14610138578063dd010e8f146101e9575b600080fd5b6100bd6004803603602081101561005c57600080fd5b810190808035906020019064010000000081111561007957600080fd5b82018360208201111561008b57600080fd5b803590602001918460018302840111640100000000831117156100ad57600080fd5b90919293919293905050506102a2565b6040518080602001828103825283818151815260200191508051906020019080838360005b838110156100fd5780820151818401526020810190506100e2565b50505050905090810190601f16801561012a5780820380516001836020036101000a031916815260200191505b509250505060405180910390f35b6101cf6004803603604081101561014e57600080fd5b810190808035906020019064010000000081111561016b57600080fd5b82018360208201111561017d57600080fd5b8035906020019184600183028401116401000000008311171561019f57600080fd5b9091929391929390803573ffffffffffffffffffffffffffffffffffffffff16906020019092919050505061036f565b604051808215151515815260200191505060405180910390f35b610260600480360360208110156101ff57600080fd5b810190808035906020019064010000000081111561021c57600080fd5b82018360208201111561022e57600080fd5b8035906020019184600183028401116401000000008311171561025057600080fd5b9091929391929390505050610518565b604051808273ffffffffffffffffffffffffffffffffffffffff1673ffffffffffffffffffffffffffffffffffffffff16815260200191505060405180910390f35b60606001838360405180838380828437808301925050509250505090815260200160405180910390206000018054600181600116156101000203166002900480601f0160208091040260200160405190810160405280929190818152602001828054600181600116156101000203166002900480156103625780601f1061033757610100808354040283529160200191610362565b820191906000526020600020905b81548152906001019060200180831161034557829003601f168201915b5050505050905092915050565b60008082336040516103809061056d565b808373ffffffffffffffffffffffffffffffffffffffff1673ffffffffffffffffffffffffffffffffffffffff1681526020018273ffffffffffffffffffffffffffffffffffffffff1673ffffffffffffffffffffffffffffffffffffffff16815260200192505050604051809103906000f080158015610405573d6000803e3d6000fd5b509050806000806101000a81548173ffffffffffffffffffffffffffffffffffffffff021916908373ffffffffffffffffffffffffffffffffffffffff1602179055508484600187876040518083838082843780830192505050925050509081526020016040518091039020600001919061048192919061057a565b506000809054906101000a900473ffffffffffffffffffffffffffffffffffffffff1660018686604051808383808284378083019250505092505050908152602001604051809103902060020160006101000a81548173ffffffffffffffffffffffffffffffffffffffff021916908373ffffffffffffffffffffffffffffffffffffffff16021790555060019150509392505050565b600060018383604051808383808284378083019250505092505050908152602001604051809103902060020160009054906101000a900473ffffffffffffffffffffffffffffffffffffffff16905092915050565b6111d48061062083390190565b828054600181600116156101000203166002900490600052602060002090601f016020900481019282601f106105bb57803560ff19168380011785556105e9565b828001600101855582156105e9579182015b828111156105e85782358255916020019190600101906105cd565b5b5090506105f691906105fa565b5090565b61061c91905b80821115610618576000816000905550600101610600565b5090565b9056fe608060405234801561001057600080fd5b506040516111d43803806111d48339818101604052604081101561003357600080fd5b810190808051906020019092919080519060200190929190505050336000806101000a81548173ffffffffffffffffffffffffffffffffffffffff021916908373ffffffffffffffffffffffffffffffffffffffff16021790555081600160006101000a81548173ffffffffffffffffffffffffffffffffffffffff021916908373ffffffffffffffffffffffffffffffffffffffff160217905550806000806101000a81548173ffffffffffffffffffffffffffffffffffffffff021916908373ffffffffffffffffffffffffffffffffffffffff16021790555050506110b4806101206000396000f3fe608060405234801561001057600080fd5b50600436106100ea5760003560e01c806391f901571161008c578063d756eb8211610066578063d756eb82146102cf578063dcc70b9a14610319578063f2fde38b14610337578063fc8234cb1461037b576100ea565b806391f901571461020f578063c8b342ab14610259578063d57bde79146102b1576100ea565b80634979440a116100c85780634979440a1461013157806362ea82db1461014f5780638a9e8671146101a75780638da5cb5b146101c5576100ea565b80632a24f46c146100ef578063320b2ad9146100f9578063454a2ab314610103575b600080fd5b6100f7610385565b005b610101610717565b005b61012f6004803603602081101561011957600080fd5b8101908080359060200190929190505050610879565b005b610139610bcd565b6040518082815260200191505060405180910390f35b6101916004803603602081101561016557600080fd5b81019080803573ffffffffffffffffffffffffffffffffffffffff169060200190929190505050610bd7565b6040518082815260200191505060405180910390f35b6101af610bef565b6040518082815260200191505060405180910390f35b6101cd610bf5565b604051808273ffffffffffffffffffffffffffffffffffffffff1673ffffffffffffffffffffffffffffffffffffffff16815260200191505060405180910390f35b610217610c1a565b604051808273ffffffffffffffffffffffffffffffffffffffff1673ffffffffffffffffffffffffffffffffffffffff16815260200191505060405180910390f35b61029b6004803603602081101561026f57600080fd5b81019080803573ffffffffffffffffffffffffffffffffffffffff169060200190929190505050610c40565b6040518082815260200191505060405180910390f35b6102b9610c89565b6040518082815260200191505060405180910390f35b6102d7610c8f565b604051808273ffffffffffffffffffffffffffffffffffffffff1673ffffffffffffffffffffffffffffffffffffffff16815260200191505060405180910390f35b610321610cb9565b6040518082815260200191505060405180910390f35b6103796004803603602081101561034d57600080fd5b81019080803573ffffffffffffffffffffffffffffffffffffffff169060200190929190505050610d9a565b005b610383610ed9565b005b6000809054906101000a900473ffffffffffffffffffffffffffffffffffffffff1673ffffffffffffffffffffffffffffffffffffffff163373ffffffffffffffffffffffffffffffffffffffff1614610447576040517f08c379a000000000000000000000000000000000000000000000000000000000815260040180806020018281038252601c8152602001807f4f776e61626c653a2063616c6c6572206973206e6f74206f776e65720000000081525060200191505060405180910390fd5b600460149054906101000a900460ff166104c9576040517f08c379a00000000000000000000000000000000000000000000000000000000081526004018080602001828103825260148152602001807f41756374696f6e20496e2050726f67726573732100000000000000000000000081525060200191505060405180910390fd5b600460159054906101000a900460ff161561052f576040517f08c379a000000000000000000000000000000000000000000000000000000000815260040180806020018281038252602381526020018061105d6023913960400191505060405180910390fd5b6001600460156101000a81548160ff0219169083151502179055507fdaec4582d5d9595688c8c98545fdd1c696d41c6aeaeb636737e84ed2f5c00eda600460009054906101000a900473ffffffffffffffffffffffffffffffffffffffff16600254604051808373ffffffffffffffffffffffffffffffffffffffff1673ffffffffffffffffffffffffffffffffffffffff1681526020018281526020019250505060405180910390a1600160009054906101000a900473ffffffffffffffffffffffffffffffffffffffff1673ffffffffffffffffffffffffffffffffffffffff166323b872dd306000809054906101000a900473ffffffffffffffffffffffffffffffffffffffff166003546040518463ffffffff1660e01b8152600401808473ffffffffffffffffffffffffffffffffffffffff1673ffffffffffffffffffffffffffffffffffffffff1681526020018373ffffffffffffffffffffffffffffffffffffffff1673ffffffffffffffffffffffffffffffffffffffff1681526020018281526020019350505050602060405180830381600087803b1580156106d957600080fd5b505af11580156106ed573d6000803e3d6000fd5b505050506040513d602081101561070357600080fd5b810190808051906020019092919050505050565b6000809054906101000a900473ffffffffffffffffffffffffffffffffffffffff1673ffffffffffffffffffffffffffffffffffffffff163373ffffffffffffffffffffffffffffffffffffffff16146107d9576040517f08c379a000000000000000000000000000000000000000000000000000000000815260040180806020018281038252601c8152602001807f4f776e61626c653a2063616c6c6572206973206e6f74206f776e65720000000081525060200191505060405180910390fd5b600460149054906101000a900460ff161561085c576040517f08c379a00000000000000000000000000000000000000000000000000000000081526004018080602001828103825260188152602001807f41756374696f6e204e6f7420496e2050726f677265737321000000000000000081525060200191505060405180910390fd5b6001600460146101000a81548160ff021916908315150217905550565b600460149054906101000a900460ff16156108fc576040517f08c379a00000000000000000000000000000000000000000000000000000000081526004018080602001828103825260188152602001807f41756374696f6e204e6f7420496e2050726f677265737321000000000000000081525060200191505060405180910390fd5b60008111610955576040517f08c379a000000000000000000000000000000000000000000000000000000000815260040180806020018281038252602281526020018061103b6022913960400191505060405180910390fd5b60025481600560003373ffffffffffffffffffffffffffffffffffffffff1673ffffffffffffffffffffffffffffffffffffffff16815260200190815260200160002054011115610a545733600460006101000a81548173ffffffffffffffffffffffffffffffffffffffff021916908373ffffffffffffffffffffffffffffffffffffffff160217905550806002819055507ff4757a49b326036464bec6fe419a4ae38c8a02ce3e68bf0809674f6aab8ad3003382604051808373ffffffffffffffffffffffffffffffffffffffff1673ffffffffffffffffffffffffffffffffffffffff1681526020018281526020019250505060405180910390a15b8060036000828254019250508190555080600560003373ffffffffffffffffffffffffffffffffffffffff1673ffffffffffffffffffffffffffffffffffffffff16815260200190815260200160002060008282540192505081905550600160009054906101000a900473ffffffffffffffffffffffffffffffffffffffff1673ffffffffffffffffffffffffffffffffffffffff166323b872dd3330846040518463ffffffff1660e01b8152600401808473ffffffffffffffffffffffffffffffffffffffff1673ffffffffffffffffffffffffffffffffffffffff1681526020018373ffffffffffffffffffffffffffffffffffffffff1673ffffffffffffffffffffffffffffffffffffffff1681526020018281526020019350505050602060405180830381600087803b158015610b8e57600080fd5b505af1158015610ba2573d6000803e3d6000fd5b505050506040513d6020811015610bb857600080fd5b81019080805190602001909291905050505050565b6000600254905090565b60056020528060005260406000206000915090505481565b60035481565b6000809054906101000a900473ffffffffffffffffffffffffffffffffffffffff1681565b600460009054906101000a900473ffffffffffffffffffffffffffffffffffffffff1681565b6000600560008373ffffffffffffffffffffffffffffffffffffffff1673ffffffffffffffffffffffffffffffffffffffff168152602001908152602001600020549050919050565b60025481565b6000600460009054906101000a900473ffffffffffffffffffffffffffffffffffffffff16905090565b6000600160009054906101000a900473ffffffffffffffffffffffffffffffffffffffff1673ffffffffffffffffffffffffffffffffffffffff166370a08231306040518263ffffffff1660e01b8152600401808273ffffffffffffffffffffffffffffffffffffffff1673ffffffffffffffffffffffffffffffffffffffff16815260200191505060206040518083038186803b158015610d5a57600080fd5b505afa158015610d6e573d6000803e3d6000fd5b505050506040513d6020811015610d8457600080fd5b8101908080519060200190929190505050905090565b6000809054906101000a900473ffffffffffffffffffffffffffffffffffffffff1673ffffffffffffffffffffffffffffffffffffffff163373ffffffffffffffffffffffffffffffffffffffff1614610e5c576040517f08c379a000000000000000000000000000000000000000000000000000000000815260040180806020018281038252601c8152602001807f4f776e61626c653a2063616c6c6572206973206e6f74206f776e65720000000081525060200191505060405180910390fd5b600073ffffffffffffffffffffffffffffffffffffffff168173ffffffffffffffffffffffffffffffffffffffff161415610e9657600080fd5b806000806101000a81548173ffffffffffffffffffffffffffffffffffffffff021916908373ffffffffffffffffffffffffffffffffffffffff16021790555050565b6000809054906101000a900473ffffffffffffffffffffffffffffffffffffffff1673ffffffffffffffffffffffffffffffffffffffff163373ffffffffffffffffffffffffffffffffffffffff1614610f9b576040517f08c379a000000000000000000000000000000000000000000000000000000000815260040180806020018281038252601c8152602001807f4f776e61626c653a2063616c6c6572206973206e6f74206f776e65720000000081525060200191505060405180910390fd5b600460149054906101000a900460ff1661101d576040517f08c379a00000000000000000000000000000000000000000000000000000000081526004018080602001828103825260148152602001807f41756374696f6e20496e2050726f67726573732100000000000000000000000081525060200191505060405180910390fd5b6000600460146101000a81548160ff02191690831515021790555056fe54686520616d6f756e74206d7573742062652067726561746572207468616e20302e61756374696f6e456e642068617320616c7265616479206265656e2063616c6c65642ea265627a7a7231582005bae6abe82c65482f12f2b35acf0f34fdb766ed1bcdc0b8e497fc1df78f53af64736f6c63430005100032a265627a7a723158204a0839fbcf8478f4a806d2b8ac06976223566bf6ba53c245107ad367fdc1eed464736f6c63430005100032",
  "source": "pragma solidity >=0.5.0 <0.7.0;\n\nimport \"./KSEAuction.sol\";\n\ncontract AuctionFactory {\n    address addr;\n\n    struct AuctionItem {\n        string name;\n        uint256 entryFee;\n        address auctionAddr;\n    }\n    mapping(string => AuctionItem) private auctions;\n\n    function createAuction(\n        string calldata _name,\n        //uint256 _entryFee,\n        //uint256 _biddingTime,\n        address _dobbyToken\n    ) external returns (bool) {\n        KSEAuction k = new KSEAuction(\n            //_biddingTime,\n            //_entryFee,\n            _dobbyToken,\n            msg.sender\n        );\n        addr = address(k);\n        auctions[_name].name = _name;\n        //auctions[_name].entryFee = _entryFee;\n        auctions[_name].auctionAddr = addr;\n        return true;\n    }\n\n    function getAuctionAddr(string calldata _name)\n        external\n        view\n        returns (address)\n    {\n        return auctions[_name].auctionAddr;\n    }\n\n    function getItemName(string calldata _name)\n        external\n        view\n        returns (string memory)\n    {\n        return auctions[_name].name;\n    }\n/*\n    function getEntryFee(string calldata _name)\n        external\n        view\n        returns (uint256)\n    {\n        return auctions[_name].entryFee;\n    }\n    */\n}\n",
  "sourcePath": "/Users/kathy/Desktop/KESA 2021Spring /ksea-token/Smart_Contracts/KSEAuction/contracts/AuctionFactory.sol",
  "compiler": {
    "name": "solc",
    "version": "0.5.16+commit.9c3226ce.Emscripten.clang"
  },
  "schemaVersion": "3.3.4",
  "updatedAt": "2021-04-13T06:28:16.776Z",
  "devdoc": {
    "methods": {}
  },
  "userdoc": {
    "methods": {}
  }
}