{
  "contractName": "KSEAuction",
  "abi": [
    {
      "inputs": [
        {
          "internalType": "address",
          "name": "_dobbyToken",
          "type": "address"
        },
        {
          "internalType": "address",
          "name": "_owner",
          "type": "address"
        }
      ],
      "payable": false,
      "stateMutability": "nonpayable",
      "type": "constructor"
    },
    {
      "anonymous": false,
      "inputs": [
        {
          "indexed": false,
          "internalType": "address",
          "name": "winner",
          "type": "address"
        },
        {
          "indexed": false,
          "internalType": "uint256",
          "name": "amount",
          "type": "uint256"
        }
      ],
      "name": "AuctionEnded",
      "type": "event"
    },
    {
      "anonymous": false,
      "inputs": [
        {
          "indexed": false,
          "internalType": "address",
          "name": "bidder",
          "type": "address"
        },
        {
          "indexed": false,
          "internalType": "uint256",
          "name": "amount",
          "type": "uint256"
        }
      ],
      "name": "HighestBidIncreased",
      "type": "event"
    },
    {
      "constant": true,
      "inputs": [
        {
          "internalType": "address",
          "name": "",
          "type": "address"
        }
      ],
      "name": "bids",
      "outputs": [
        {
          "internalType": "uint256",
          "name": "",
          "type": "uint256"
        }
      ],
      "payable": false,
      "stateMutability": "view",
      "type": "function"
    },
    {
      "constant": true,
      "inputs": [],
      "name": "highestBid",
      "outputs": [
        {
          "internalType": "uint256",
          "name": "",
          "type": "uint256"
        }
      ],
      "payable": false,
      "stateMutability": "view",
      "type": "function"
    },
    {
      "constant": true,
      "inputs": [],
      "name": "highestBidder",
      "outputs": [
        {
          "internalType": "address",
          "name": "",
          "type": "address"
        }
      ],
      "payable": false,
      "stateMutability": "view",
      "type": "function"
    },
    {
      "constant": true,
      "inputs": [],
      "name": "owner",
      "outputs": [
        {
          "internalType": "address",
          "name": "",
          "type": "address"
        }
      ],
      "payable": false,
      "stateMutability": "view",
      "type": "function"
    },
    {
      "constant": true,
      "inputs": [],
      "name": "totalBid",
      "outputs": [
        {
          "internalType": "uint256",
          "name": "",
          "type": "uint256"
        }
      ],
      "payable": false,
      "stateMutability": "view",
      "type": "function"
    },
    {
      "constant": false,
      "inputs": [
        {
          "internalType": "address",
          "name": "newOwner",
          "type": "address"
        }
      ],
      "name": "transferOwnership",
      "outputs": [],
      "payable": false,
      "stateMutability": "nonpayable",
      "type": "function"
    },
    {
      "constant": false,
      "inputs": [],
      "name": "_pause",
      "outputs": [],
      "payable": false,
      "stateMutability": "nonpayable",
      "type": "function"
    },
    {
      "constant": false,
      "inputs": [],
      "name": "_unpause",
      "outputs": [],
      "payable": false,
      "stateMutability": "nonpayable",
      "type": "function"
    },
    {
      "constant": false,
      "inputs": [
        {
          "internalType": "uint256",
          "name": "_amount",
          "type": "uint256"
        }
      ],
      "name": "bid",
      "outputs": [],
      "payable": false,
      "stateMutability": "nonpayable",
      "type": "function"
    },
    {
      "constant": false,
      "inputs": [],
      "name": "auctionEnd",
      "outputs": [],
      "payable": false,
      "stateMutability": "nonpayable",
      "type": "function"
    },
    {
      "constant": true,
      "inputs": [],
      "name": "getTotalBids",
      "outputs": [
        {
          "internalType": "uint256",
          "name": "",
          "type": "uint256"
        }
      ],
      "payable": false,
      "stateMutability": "view",
      "type": "function"
    },
    {
      "constant": true,
      "inputs": [
        {
          "internalType": "address",
          "name": "bidder",
          "type": "address"
        }
      ],
      "name": "getBid",
      "outputs": [
        {
          "internalType": "uint256",
          "name": "",
          "type": "uint256"
        }
      ],
      "payable": false,
      "stateMutability": "view",
      "type": "function"
    },
    {
      "constant": true,
      "inputs": [],
      "name": "getHighestBid",
      "outputs": [
        {
          "internalType": "uint256",
          "name": "",
          "type": "uint256"
        }
      ],
      "payable": false,
      "stateMutability": "view",
      "type": "function"
    },
    {
      "constant": true,
      "inputs": [],
      "name": "getHighestBidder",
      "outputs": [
        {
          "internalType": "address",
          "name": "",
          "type": "address"
        }
      ],
      "payable": false,
      "stateMutability": "view",
      "type": "function"
    }
  ],
  "bytecode": "0x608060405234801561001057600080fd5b5060405161122f38038061122f8339818101604052604081101561003357600080fd5b810190808051906020019092919080519060200190929190505050336000806101000a81548173ffffffffffffffffffffffffffffffffffffffff021916908373ffffffffffffffffffffffffffffffffffffffff16021790555081600160006101000a81548173ffffffffffffffffffffffffffffffffffffffff021916908373ffffffffffffffffffffffffffffffffffffffff160217905550806000806101000a81548173ffffffffffffffffffffffffffffffffffffffff021916908373ffffffffffffffffffffffffffffffffffffffff1602179055506000600460146101000a81548160ff02191690831515021790555050506110f48061013b6000396000f3fe608060405234801561001057600080fd5b50600436106100e95760003560e01c80638da5cb5b1161008c578063d57bde7911610066578063d57bde79146102fa578063dcc70b9a14610318578063f2fde38b14610336578063fc8234cb1461037a576100e9565b80638da5cb5b1461020e57806391f9015714610258578063c8b342ab146102a2576100e9565b8063454a2ab3116100c8578063454a2ab31461014c5780634979440a1461017a57806362ea82db146101985780638a9e8671146101f0576100e9565b80623495a4146100ee5780632a24f46c14610138578063320b2ad914610142575b600080fd5b6100f6610384565b604051808273ffffffffffffffffffffffffffffffffffffffff1673ffffffffffffffffffffffffffffffffffffffff16815260200191505060405180910390f35b6101406103ae565b005b61014a610740565b005b6101786004803603602081101561016257600080fd5b81019080803590602001909291905050506108a2565b005b610182610c37565b6040518082815260200191505060405180910390f35b6101da600480360360208110156101ae57600080fd5b81019080803573ffffffffffffffffffffffffffffffffffffffff169060200190929190505050610c41565b6040518082815260200191505060405180910390f35b6101f8610c59565b6040518082815260200191505060405180910390f35b610216610c5f565b604051808273ffffffffffffffffffffffffffffffffffffffff1673ffffffffffffffffffffffffffffffffffffffff16815260200191505060405180910390f35b610260610c84565b604051808273ffffffffffffffffffffffffffffffffffffffff1673ffffffffffffffffffffffffffffffffffffffff16815260200191505060405180910390f35b6102e4600480360360208110156102b857600080fd5b81019080803573ffffffffffffffffffffffffffffffffffffffff169060200190929190505050610caa565b6040518082815260200191505060405180910390f35b610302610cf3565b6040518082815260200191505060405180910390f35b610320610cf9565b6040518082815260200191505060405180910390f35b6103786004803603602081101561034c57600080fd5b81019080803573ffffffffffffffffffffffffffffffffffffffff169060200190929190505050610dda565b005b610382610f19565b005b6000600460009054906101000a900473ffffffffffffffffffffffffffffffffffffffff16905090565b6000809054906101000a900473ffffffffffffffffffffffffffffffffffffffff1673ffffffffffffffffffffffffffffffffffffffff163373ffffffffffffffffffffffffffffffffffffffff1614610470576040517f08c379a000000000000000000000000000000000000000000000000000000000815260040180806020018281038252601c8152602001807f4f776e61626c653a2063616c6c6572206973206e6f74206f776e65720000000081525060200191505060405180910390fd5b600460149054906101000a900460ff166104f2576040517f08c379a00000000000000000000000000000000000000000000000000000000081526004018080602001828103825260148152602001807f41756374696f6e20496e2050726f67726573732100000000000000000000000081525060200191505060405180910390fd5b600460159054906101000a900460ff1615610558576040517f08c379a000000000000000000000000000000000000000000000000000000000815260040180806020018281038252602381526020018061109d6023913960400191505060405180910390fd5b6001600460156101000a81548160ff0219169083151502179055507fdaec4582d5d9595688c8c98545fdd1c696d41c6aeaeb636737e84ed2f5c00eda600460009054906101000a900473ffffffffffffffffffffffffffffffffffffffff16600254604051808373ffffffffffffffffffffffffffffffffffffffff1673ffffffffffffffffffffffffffffffffffffffff1681526020018281526020019250505060405180910390a1600160009054906101000a900473ffffffffffffffffffffffffffffffffffffffff1673ffffffffffffffffffffffffffffffffffffffff166323b872dd306000809054906101000a900473ffffffffffffffffffffffffffffffffffffffff166003546040518463ffffffff1660e01b8152600401808473ffffffffffffffffffffffffffffffffffffffff1673ffffffffffffffffffffffffffffffffffffffff1681526020018373ffffffffffffffffffffffffffffffffffffffff1673ffffffffffffffffffffffffffffffffffffffff1681526020018281526020019350505050602060405180830381600087803b15801561070257600080fd5b505af1158015610716573d6000803e3d6000fd5b505050506040513d602081101561072c57600080fd5b810190808051906020019092919050505050565b6000809054906101000a900473ffffffffffffffffffffffffffffffffffffffff1673ffffffffffffffffffffffffffffffffffffffff163373ffffffffffffffffffffffffffffffffffffffff1614610802576040517f08c379a000000000000000000000000000000000000000000000000000000000815260040180806020018281038252601c8152602001807f4f776e61626c653a2063616c6c6572206973206e6f74206f776e65720000000081525060200191505060405180910390fd5b600460149054906101000a900460ff1615610885576040517f08c379a00000000000000000000000000000000000000000000000000000000081526004018080602001828103825260188152602001807f41756374696f6e204e6f7420496e2050726f677265737321000000000000000081525060200191505060405180910390fd5b6001600460146101000a81548160ff021916908315150217905550565b600460149054906101000a900460ff1615610925576040517f08c379a00000000000000000000000000000000000000000000000000000000081526004018080602001828103825260188152602001807f41756374696f6e204e6f7420496e2050726f677265737321000000000000000081525060200191505060405180910390fd5b6000811161097e576040517f08c379a000000000000000000000000000000000000000000000000000000000815260040180806020018281038252602281526020018061107b6022913960400191505060405180910390fd5b60025481600560003373ffffffffffffffffffffffffffffffffffffffff1673ffffffffffffffffffffffffffffffffffffffff16815260200190815260200160002054011115610abe5733600460006101000a81548173ffffffffffffffffffffffffffffffffffffffff021916908373ffffffffffffffffffffffffffffffffffffffff16021790555080600560003373ffffffffffffffffffffffffffffffffffffffff1673ffffffffffffffffffffffffffffffffffffffff16815260200190815260200160002054016002819055507ff4757a49b326036464bec6fe419a4ae38c8a02ce3e68bf0809674f6aab8ad3003382604051808373ffffffffffffffffffffffffffffffffffffffff1673ffffffffffffffffffffffffffffffffffffffff1681526020018281526020019250505060405180910390a15b8060036000828254019250508190555080600560003373ffffffffffffffffffffffffffffffffffffffff1673ffffffffffffffffffffffffffffffffffffffff16815260200190815260200160002060008282540192505081905550600160009054906101000a900473ffffffffffffffffffffffffffffffffffffffff1673ffffffffffffffffffffffffffffffffffffffff166323b872dd3330846040518463ffffffff1660e01b8152600401808473ffffffffffffffffffffffffffffffffffffffff1673ffffffffffffffffffffffffffffffffffffffff1681526020018373ffffffffffffffffffffffffffffffffffffffff1673ffffffffffffffffffffffffffffffffffffffff1681526020018281526020019350505050602060405180830381600087803b158015610bf857600080fd5b505af1158015610c0c573d6000803e3d6000fd5b505050506040513d6020811015610c2257600080fd5b81019080805190602001909291905050505050565b6000600254905090565b60056020528060005260406000206000915090505481565b60035481565b6000809054906101000a900473ffffffffffffffffffffffffffffffffffffffff1681565b600460009054906101000a900473ffffffffffffffffffffffffffffffffffffffff1681565b6000600560008373ffffffffffffffffffffffffffffffffffffffff1673ffffffffffffffffffffffffffffffffffffffff168152602001908152602001600020549050919050565b60025481565b6000600160009054906101000a900473ffffffffffffffffffffffffffffffffffffffff1673ffffffffffffffffffffffffffffffffffffffff166370a08231306040518263ffffffff1660e01b8152600401808273ffffffffffffffffffffffffffffffffffffffff1673ffffffffffffffffffffffffffffffffffffffff16815260200191505060206040518083038186803b158015610d9a57600080fd5b505afa158015610dae573d6000803e3d6000fd5b505050506040513d6020811015610dc457600080fd5b8101908080519060200190929190505050905090565b6000809054906101000a900473ffffffffffffffffffffffffffffffffffffffff1673ffffffffffffffffffffffffffffffffffffffff163373ffffffffffffffffffffffffffffffffffffffff1614610e9c576040517f08c379a000000000000000000000000000000000000000000000000000000000815260040180806020018281038252601c8152602001807f4f776e61626c653a2063616c6c6572206973206e6f74206f776e65720000000081525060200191505060405180910390fd5b600073ffffffffffffffffffffffffffffffffffffffff168173ffffffffffffffffffffffffffffffffffffffff161415610ed657600080fd5b806000806101000a81548173ffffffffffffffffffffffffffffffffffffffff021916908373ffffffffffffffffffffffffffffffffffffffff16021790555050565b6000809054906101000a900473ffffffffffffffffffffffffffffffffffffffff1673ffffffffffffffffffffffffffffffffffffffff163373ffffffffffffffffffffffffffffffffffffffff1614610fdb576040517f08c379a000000000000000000000000000000000000000000000000000000000815260040180806020018281038252601c8152602001807f4f776e61626c653a2063616c6c6572206973206e6f74206f776e65720000000081525060200191505060405180910390fd5b600460149054906101000a900460ff1661105d576040517f08c379a00000000000000000000000000000000000000000000000000000000081526004018080602001828103825260148152602001807f41756374696f6e20496e2050726f67726573732100000000000000000000000081525060200191505060405180910390fd5b6000600460146101000a81548160ff02191690831515021790555056fe54686520616d6f756e74206d7573742062652067726561746572207468616e20302e61756374696f6e456e642068617320616c7265616479206265656e2063616c6c65642ea265627a7a7231582064f0e1c16346cccace982797058fc483583c721c115524d1c370a78c3d10b4ed64736f6c63430005100032",
  "source": "// SPDX-License-Identifier: UNLICENSED\r\npragma solidity >=0.5.0 <0.7.0;\r\n\r\nimport \"../../KSEAToken/contracts/KSEAToken.sol\";\r\nimport \"../../KSEAirdrop/contracts/KSEAirdrop.sol\";\r\n\r\n\r\n/**\r\n=== RULE OF THE AUCTION ===\r\n1. Blind Auction: The highest Bid is visible but becomes invisible at the last 1 hour.\r\n2. There is no entry fee to enter the auction\r\n3. There is no Bid Limit!\r\n4. You cannot withdraw you bids. You can only add on more bids.\r\n */\r\n\r\ncontract KSEAuction is Ownable {\r\n    using SafeMath for uint256;\r\n\r\n    EIP20Interface private dobbyToken;\r\n\r\n    uint256 public highestBid;\r\n    uint256 public totalBid;\r\n    address public highestBidder;\r\n    bool private paused;\r\n    bool ended;\r\n\r\n    // maps address to user's total bid\r\n    mapping(address => uint256) public bids;\r\n\r\n    event HighestBidIncreased(address bidder, uint256 amount);\r\n    event AuctionEnded(address winner, uint256 amount);\r\n\r\n    constructor(\r\n        address _dobbyToken,\r\n        address _owner\r\n    ) public {\r\n        dobbyToken = EIP20Interface(_dobbyToken);\r\n        owner = _owner;\r\n        paused = false;\r\n    }\r\n\r\n    /*\r\n    Control the execution state of the contract.\r\n    */\r\n    modifier whenPaused() {\r\n        require(paused, \"Auction In Progress!\");\r\n        _;\r\n    }\r\n\r\n    modifier whenUnpaused() {\r\n        require(!paused, \"Auction Not In Progress!\");\r\n        _;\r\n    }\r\n\r\n    function _pause() public onlyOwner whenUnpaused {\r\n        paused = true;\r\n    }\r\n\r\n    function _unpause() public onlyOwner whenPaused {\r\n        paused = false;\r\n    }\r\n\r\n    /**\r\n    Bid Function handles the token transaction from user's wallet to this smart contract. If the user already has bids staked in the contract, the new bids gets added on to their total bids.\r\n     */\r\n    function bid(uint256 _amount) public whenUnpaused {\r\n        require(_amount > 0, \"The amount must be greater than 0.\");\r\n\r\n        // update the highest bid and bidder\r\n        if (bids[msg.sender] + _amount > highestBid) {\r\n            highestBidder = msg.sender;\r\n            highestBid = bids[msg.sender] + _amount;\r\n\r\n            emit HighestBidIncreased(msg.sender, _amount);\r\n        }\r\n\r\n        // transaction\r\n        totalBid += _amount;\r\n        bids[msg.sender] += _amount;\r\n        dobbyToken.transferFrom(msg.sender, address(this), _amount);\r\n    }\r\n\r\n    /// End the auction and send the highest bid\r\n    /// to the beneficiary.\r\n    function auctionEnd() public onlyOwner whenPaused {\r\n        // 1. Conditions\r\n        require(!ended, \"auctionEnd has already been called.\");\r\n\r\n        // 2. Effects\r\n        ended = true;\r\n        emit AuctionEnded(highestBidder, highestBid);\r\n\r\n        // 3. Interaction\r\n        // dobbyToken.transferFrom(address(this), owner, highestBid);\r\n        dobbyToken.transferFrom(address(this), owner, totalBid);\r\n    }\r\n\r\n    //returns the total bids staked in this smart contract\r\n    function getTotalBids() public view returns (uint256) {\r\n        return dobbyToken.balanceOf(address(this));\r\n    }\r\n\r\n    //returns the user's current bid\r\n    function getBid(address bidder) public view returns (uint256) {\r\n        return bids[bidder];\r\n    }\r\n\r\n    //returns the current highest bid\r\n    function getHighestBid() public view returns (uint256) {\r\n        return highestBid;\r\n    }\r\n\r\n    //returns the highest bidder's address\r\n    function getHighestBidder() public view returns (address) {\r\n        return highestBidder;\r\n    }\r\n}\r\n",
  "sourcePath": "C:\\Users\\iskys\\Desktop\\project-dev\\ksea\\ksea-token\\Smart_Contracts\\KSEAuction\\contracts\\KSEAuction.sol",
  "compiler": {
    "name": "solc",
    "version": "0.5.16+commit.9c3226ce.Emscripten.clang"
  },
  "schemaVersion": "3.2.2",
  "updatedAt": "2021-04-25T08:20:04.477Z",
  "devdoc": {
    "methods": {}
  },
  "userdoc": {
    "methods": {
      "auctionEnd()": {
        "notice": "End the auction and send the highest bid to the beneficiary."
      },
      "bid(uint256)": {
        "notice": "Bid Function handles the token transaction from user's wallet to this smart contract. If the user already has bids staked in the contract, the new bids gets added on to their total bids."
      }
    },
    "notice": "=== RULE OF THE AUCTION === 1. Blind Auction: The highest Bid is visible but becomes invisible at the last 1 hour. 2. There is no entry fee to enter the auction 3. There is no Bid Limit! 4. You cannot withdraw you bids. You can only add on more bids."
  }
}