{
  "contractName": "KSEAuction",
  "abi": [
    {
      "inputs": [
        {
          "internalType": "uint256",
          "name": "_biddingTime",
          "type": "uint256"
        },
        {
          "internalType": "uint256",
          "name": "_startPrice",
          "type": "uint256"
        },
        {
          "internalType": "address",
          "name": "_dobbyToken",
          "type": "address"
        },
        {
          "internalType": "address",
          "name": "_owner",
          "type": "address"
        }
      ],
      "payable": false,
      "stateMutability": "nonpayable",
      "type": "constructor"
    },
    {
      "anonymous": false,
      "inputs": [
        {
          "indexed": false,
          "internalType": "address",
          "name": "winner",
          "type": "address"
        },
        {
          "indexed": false,
          "internalType": "uint256",
          "name": "amount",
          "type": "uint256"
        }
      ],
      "name": "AuctionEnded",
      "type": "event"
    },
    {
      "anonymous": false,
      "inputs": [
        {
          "indexed": false,
          "internalType": "address",
          "name": "bidder",
          "type": "address"
        },
        {
          "indexed": false,
          "internalType": "uint256",
          "name": "amount",
          "type": "uint256"
        }
      ],
      "name": "HighestBidIncreased",
      "type": "event"
    },
    {
      "constant": true,
      "inputs": [],
      "name": "auctionEndTime",
      "outputs": [
        {
          "internalType": "uint256",
          "name": "",
          "type": "uint256"
        }
      ],
      "payable": false,
      "stateMutability": "view",
      "type": "function"
    },
    {
      "constant": true,
      "inputs": [
        {
          "internalType": "address",
          "name": "",
          "type": "address"
        }
      ],
      "name": "bids",
      "outputs": [
        {
          "internalType": "uint256",
          "name": "",
          "type": "uint256"
        }
      ],
      "payable": false,
      "stateMutability": "view",
      "type": "function"
    },
    {
      "constant": true,
      "inputs": [],
      "name": "highestBid",
      "outputs": [
        {
          "internalType": "uint256",
          "name": "",
          "type": "uint256"
        }
      ],
      "payable": false,
      "stateMutability": "view",
      "type": "function"
    },
    {
      "constant": true,
      "inputs": [],
      "name": "highestBidder",
      "outputs": [
        {
          "internalType": "address",
          "name": "",
          "type": "address"
        }
      ],
      "payable": false,
      "stateMutability": "view",
      "type": "function"
    },
    {
      "constant": true,
      "inputs": [],
      "name": "owner",
      "outputs": [
        {
          "internalType": "address",
          "name": "",
          "type": "address"
        }
      ],
      "payable": false,
      "stateMutability": "view",
      "type": "function"
    },
    {
      "constant": true,
      "inputs": [],
      "name": "startPrice",
      "outputs": [
        {
          "internalType": "uint256",
          "name": "",
          "type": "uint256"
        }
      ],
      "payable": false,
      "stateMutability": "view",
      "type": "function"
    },
    {
      "constant": false,
      "inputs": [
        {
          "internalType": "address",
          "name": "newOwner",
          "type": "address"
        }
      ],
      "name": "transferOwnership",
      "outputs": [],
      "payable": false,
      "stateMutability": "nonpayable",
      "type": "function"
    },
    {
      "constant": false,
      "inputs": [
        {
          "internalType": "uint256",
          "name": "_amount",
          "type": "uint256"
        }
      ],
      "name": "bid",
      "outputs": [],
      "payable": false,
      "stateMutability": "nonpayable",
      "type": "function"
    },
    {
      "constant": false,
      "inputs": [],
      "name": "withdraw",
      "outputs": [
        {
          "internalType": "bool",
          "name": "",
          "type": "bool"
        }
      ],
      "payable": false,
      "stateMutability": "nonpayable",
      "type": "function"
    },
    {
      "constant": false,
      "inputs": [],
      "name": "auctionEnd",
      "outputs": [],
      "payable": false,
      "stateMutability": "nonpayable",
      "type": "function"
    },
    {
      "constant": true,
      "inputs": [],
      "name": "getTotalBids",
      "outputs": [
        {
          "internalType": "uint256",
          "name": "",
          "type": "uint256"
        }
      ],
      "payable": false,
      "stateMutability": "view",
      "type": "function"
    }
  ],
  "bytecode": "0x608060405234801561001057600080fd5b5060405161127b38038061127b8339818101604052608081101561003357600080fd5b8101908080519060200190929190805190602001909291908051906020019092919080519060200190929190505050336000806101000a81548173ffffffffffffffffffffffffffffffffffffffff021916908373ffffffffffffffffffffffffffffffffffffffff16021790555083420160028190555081600160006101000a81548173ffffffffffffffffffffffffffffffffffffffff021916908373ffffffffffffffffffffffffffffffffffffffff160217905550806000806101000a81548173ffffffffffffffffffffffffffffffffffffffff021916908373ffffffffffffffffffffffffffffffffffffffff1602179055508260048190555050505050611135806101466000396000f3fe608060405234801561001057600080fd5b50600436106100a95760003560e01c80638da5cb5b116100715780638da5cb5b1461017e57806391f90157146101c8578063d57bde7914610212578063dcc70b9a14610230578063f1a9af891461024e578063f2fde38b1461026c576100a9565b80632a24f46c146100ae5780633ccfd60b146100b8578063454a2ab3146100da5780634b449cba1461010857806362ea82db14610126575b600080fd5b6100b66102b0565b005b6100c0610576565b604051808215151515815260200191505060405180910390f35b610106600480360360208110156100f057600080fd5b810190808035906020019092919050505061074f565b005b610110610c6d565b6040518082815260200191505060405180910390f35b6101686004803603602081101561013c57600080fd5b81019080803573ffffffffffffffffffffffffffffffffffffffff169060200190929190505050610c73565b6040518082815260200191505060405180910390f35b610186610c8b565b604051808273ffffffffffffffffffffffffffffffffffffffff1673ffffffffffffffffffffffffffffffffffffffff16815260200191505060405180910390f35b6101d0610cb0565b604051808273ffffffffffffffffffffffffffffffffffffffff1673ffffffffffffffffffffffffffffffffffffffff16815260200191505060405180910390f35b61021a610cd6565b6040518082815260200191505060405180910390f35b610238610cdc565b6040518082815260200191505060405180910390f35b610256610dbd565b6040518082815260200191505060405180910390f35b6102ae6004803603602081101561028257600080fd5b81019080803573ffffffffffffffffffffffffffffffffffffffff169060200190929190505050610dc3565b005b600254421015610328576040517f08c379a00000000000000000000000000000000000000000000000000000000081526004018080602001828103825260168152602001807f41756374696f6e206e6f742079657420656e6465642e0000000000000000000081525060200191505060405180910390fd5b600560149054906101000a900460ff161561038e576040517f08c379a00000000000000000000000000000000000000000000000000000000081526004018080602001828103825260238152602001806110de6023913960400191505060405180910390fd5b6001600560146101000a81548160ff0219169083151502179055507fdaec4582d5d9595688c8c98545fdd1c696d41c6aeaeb636737e84ed2f5c00eda600560009054906101000a900473ffffffffffffffffffffffffffffffffffffffff16600354604051808373ffffffffffffffffffffffffffffffffffffffff1673ffffffffffffffffffffffffffffffffffffffff1681526020018281526020019250505060405180910390a1600160009054906101000a900473ffffffffffffffffffffffffffffffffffffffff1673ffffffffffffffffffffffffffffffffffffffff166323b872dd306000809054906101000a900473ffffffffffffffffffffffffffffffffffffffff166003546040518463ffffffff1660e01b8152600401808473ffffffffffffffffffffffffffffffffffffffff1673ffffffffffffffffffffffffffffffffffffffff1681526020018373ffffffffffffffffffffffffffffffffffffffff1673ffffffffffffffffffffffffffffffffffffffff1681526020018281526020019350505050602060405180830381600087803b15801561053857600080fd5b505af115801561054c573d6000803e3d6000fd5b505050506040513d602081101561056257600080fd5b810190808051906020019092919050505050565b600080600760003373ffffffffffffffffffffffffffffffffffffffff1673ffffffffffffffffffffffffffffffffffffffff168152602001908152602001600020549050600081111561074a576000600760003373ffffffffffffffffffffffffffffffffffffffff1673ffffffffffffffffffffffffffffffffffffffff16815260200190815260200160002081905550600160009054906101000a900473ffffffffffffffffffffffffffffffffffffffff1673ffffffffffffffffffffffffffffffffffffffff1663a9059cbb33836040518363ffffffff1660e01b8152600401808373ffffffffffffffffffffffffffffffffffffffff1673ffffffffffffffffffffffffffffffffffffffff16815260200182815260200192505050602060405180830381600087803b1580156106b257600080fd5b505af11580156106c6573d6000803e3d6000fd5b505050506040513d60208110156106dc57600080fd5b8101908080519060200190929190505050156106fc57600191505061074c565b80600760003373ffffffffffffffffffffffffffffffffffffffff1673ffffffffffffffffffffffffffffffffffffffff16815260200190815260200160002081905550600091505061074c565b505b90565b6002544211156107c7576040517f08c379a00000000000000000000000000000000000000000000000000000000081526004018080602001828103825260168152602001807f41756374696f6e20616c726561647920656e6465642e0000000000000000000081525060200191505060405180910390fd5b600354811161083e576040517f08c379a000000000000000000000000000000000000000000000000000000000815260040180806020018281038252601e8152602001807f546865726520616c7265616479206973206120686967686572206269642e000081525060200191505060405180910390fd5b6000600354146108ba5760035460076000600560009054906101000a900473ffffffffffffffffffffffffffffffffffffffff1673ffffffffffffffffffffffffffffffffffffffff1673ffffffffffffffffffffffffffffffffffffffff168152602001908152602001600020600082825401925050819055505b60011515600960003373ffffffffffffffffffffffffffffffffffffffff1673ffffffffffffffffffffffffffffffffffffffff16815260200190815260200160002060009054906101000a900460ff1615151415610a3b5761091c33610f02565b50600160009054906101000a900473ffffffffffffffffffffffffffffffffffffffff1673ffffffffffffffffffffffffffffffffffffffff166323b872dd3330846040518463ffffffff1660e01b8152600401808473ffffffffffffffffffffffffffffffffffffffff1673ffffffffffffffffffffffffffffffffffffffff1681526020018373ffffffffffffffffffffffffffffffffffffffff1673ffffffffffffffffffffffffffffffffffffffff1681526020018281526020019350505050602060405180830381600087803b1580156109fa57600080fd5b505af1158015610a0e573d6000803e3d6000fd5b505050506040513d6020811015610a2457600080fd5b810190808051906020019092919050505050610bb7565b600060045482019050600160009054906101000a900473ffffffffffffffffffffffffffffffffffffffff1673ffffffffffffffffffffffffffffffffffffffff166323b872dd3330846040518463ffffffff1660e01b8152600401808473ffffffffffffffffffffffffffffffffffffffff1673ffffffffffffffffffffffffffffffffffffffff1681526020018373ffffffffffffffffffffffffffffffffffffffff1673ffffffffffffffffffffffffffffffffffffffff1681526020018281526020019350505050602060405180830381600087803b158015610b2157600080fd5b505af1158015610b35573d6000803e3d6000fd5b505050506040513d6020811015610b4b57600080fd5b8101908080519060200190929190505050506001600960003373ffffffffffffffffffffffffffffffffffffffff1673ffffffffffffffffffffffffffffffffffffffff16815260200190815260200160002060006101000a81548160ff021916908315150217905550505b33600560006101000a81548173ffffffffffffffffffffffffffffffffffffffff021916908373ffffffffffffffffffffffffffffffffffffffff160217905550806003819055507ff4757a49b326036464bec6fe419a4ae38c8a02ce3e68bf0809674f6aab8ad3003382604051808373ffffffffffffffffffffffffffffffffffffffff1673ffffffffffffffffffffffffffffffffffffffff1681526020018281526020019250505060405180910390a150565b60025481565b60086020528060005260406000206000915090505481565b6000809054906101000a900473ffffffffffffffffffffffffffffffffffffffff1681565b600560009054906101000a900473ffffffffffffffffffffffffffffffffffffffff1681565b60035481565b6000600160009054906101000a900473ffffffffffffffffffffffffffffffffffffffff1673ffffffffffffffffffffffffffffffffffffffff166370a08231306040518263ffffffff1660e01b8152600401808273ffffffffffffffffffffffffffffffffffffffff1673ffffffffffffffffffffffffffffffffffffffff16815260200191505060206040518083038186803b158015610d7d57600080fd5b505afa158015610d91573d6000803e3d6000fd5b505050506040513d6020811015610da757600080fd5b8101908080519060200190929190505050905090565b60045481565b6000809054906101000a900473ffffffffffffffffffffffffffffffffffffffff1673ffffffffffffffffffffffffffffffffffffffff163373ffffffffffffffffffffffffffffffffffffffff1614610e85576040517f08c379a000000000000000000000000000000000000000000000000000000000815260040180806020018281038252601c8152602001807f4f776e61626c653a2063616c6c6572206973206e6f74206f776e65720000000081525060200191505060405180910390fd5b600073ffffffffffffffffffffffffffffffffffffffff168173ffffffffffffffffffffffffffffffffffffffff161415610ebf57600080fd5b806000806101000a81548173ffffffffffffffffffffffffffffffffffffffff021916908373ffffffffffffffffffffffffffffffffffffffff16021790555050565b600080600760008473ffffffffffffffffffffffffffffffffffffffff1673ffffffffffffffffffffffffffffffffffffffff16815260200190815260200160002054905060008111156110d6576000600760003373ffffffffffffffffffffffffffffffffffffffff1673ffffffffffffffffffffffffffffffffffffffff16815260200190815260200160002081905550600160009054906101000a900473ffffffffffffffffffffffffffffffffffffffff1673ffffffffffffffffffffffffffffffffffffffff1663a9059cbb84836040518363ffffffff1660e01b8152600401808373ffffffffffffffffffffffffffffffffffffffff1673ffffffffffffffffffffffffffffffffffffffff16815260200182815260200192505050602060405180830381600087803b15801561103e57600080fd5b505af1158015611052573d6000803e3d6000fd5b505050506040513d602081101561106857600080fd5b8101908080519060200190929190505050156110885760019150506110d8565b80600760008573ffffffffffffffffffffffffffffffffffffffff1673ffffffffffffffffffffffffffffffffffffffff1681526020019081526020016000208190555060009150506110d8565b505b91905056fe61756374696f6e456e642068617320616c7265616479206265656e2063616c6c65642ea265627a7a72315820440c6f7b8be2ae1617c821b0499175231763f19189c3722bc331c5c73655885064736f6c63430005100032",
  "source": "// SPDX-License-Identifier: UNLICENSED\r\npragma solidity >= 0.5.0 < 0.7.0;\r\n\r\nimport \"../../KSEAToken/contracts/KSEAToken.sol\";\r\nimport \"../../KSEAirdrop/contracts/KSEAirdrop.sol\";\r\n\r\ncontract KSEAuction is Ownable {\r\n    using SafeMath for uint256;\r\n\r\n    EIP20Interface private dobbyToken;\r\n\r\n    uint256 public auctionEndTime;\r\n    uint256 public highestBid;\r\n    uint256 public startPrice;\r\n    address public highestBidder;\r\n    bool ended;\r\n\r\n    address[] bidders;\r\n\r\n    // Allowed withdrawals of previous bids\r\n    mapping(address => uint) pendingReturns;\r\n    mapping(address => uint) public bids;\r\n    mapping(address => bool) private bidChecker;\r\n\r\n    event HighestBidIncreased(address bidder, uint amount);\r\n    event AuctionEnded(address winner, uint amount);\r\n\r\n    constructor(uint256 _biddingTime, uint256 _startPrice, address _dobbyToken, address _owner) public {\r\n        auctionEndTime = block.timestamp + _biddingTime;\r\n        dobbyToken = EIP20Interface(_dobbyToken);\r\n        owner = _owner;\r\n        startPrice = _startPrice;\r\n    }\r\n\r\n    function bid(uint256 _amount) public {\r\n        require(\r\n            now <= auctionEndTime,\r\n            \"Auction already ended.\"\r\n        );\r\n\r\n        require(\r\n            _amount > highestBid,\r\n            \"There already is a higher bid.\"\r\n        );\r\n\r\n        if (highestBid != 0) {\r\n            pendingReturns[highestBidder] += highestBid;\r\n        }\r\n\r\n        if (bidChecker[msg.sender] == true) {\r\n            internalWithdraw(msg.sender);\r\n            dobbyToken.transferFrom(msg.sender, address(this), _amount);\r\n        } else {\r\n            uint256 premiumBid = _amount + startPrice;\r\n            dobbyToken.transferFrom(msg.sender, address(this), premiumBid);\r\n            bidChecker[msg.sender] = true;\r\n        }\r\n        \r\n        highestBidder = msg.sender;\r\n        highestBid = _amount;\r\n\r\n        emit HighestBidIncreased(msg.sender, _amount);\r\n    }\r\n\r\n    function internalWithdraw(address member) internal returns (bool) {\r\n      uint amount = pendingReturns[member];\r\n      if (amount > 0) {\r\n          pendingReturns[msg.sender] = 0;\r\n        if (dobbyToken.transfer(member, amount)) {\r\n            return true;\r\n        } else {\r\n            pendingReturns[member] = amount;\r\n            return false;\r\n        }\r\n      }\r\n    }\r\n\r\n    /// Withdraw a bid that was overbid.\r\n    function withdraw() public returns (bool) {\r\n        uint amount = pendingReturns[msg.sender];\r\n        if (amount > 0) {\r\n            pendingReturns[msg.sender] = 0;\r\n            if (dobbyToken.transfer(msg.sender, amount)) {\r\n                return true;\r\n            } else {\r\n                pendingReturns[msg.sender] = amount;\r\n                return false;\r\n            }\r\n        }\r\n    }\r\n\r\n    /// End the auction and send the highest bid\r\n    /// to the beneficiary.\r\n    function auctionEnd() public {\r\n        // 1. Conditions\r\n        require(now >= auctionEndTime, \"Auction not yet ended.\");\r\n        require(!ended, \"auctionEnd has already been called.\");\r\n\r\n        // 2. Effects\r\n        ended = true;\r\n        emit AuctionEnded(highestBidder, highestBid);\r\n\r\n        // 3. Interaction\r\n        dobbyToken.transferFrom(address(this), owner, highestBid);\r\n    }\r\n\r\n    function getTotalBids() public view returns (uint256) {\r\n        return dobbyToken.balanceOf(address(this));\r\n    }\r\n}\r\n",
  "sourcePath": "C:\\Users\\iskys\\Desktop\\project-dev\\ksea\\ksea-token\\KSEAuction\\contracts\\KSEAuction.sol",
  "compiler": {
    "name": "solc",
    "version": "0.5.16+commit.9c3226ce.Emscripten.clang"
  },
  "schemaVersion": "3.2.2",
  "updatedAt": "2020-11-15T15:47:40.390Z",
  "devdoc": {
    "methods": {}
  },
  "userdoc": {
    "methods": {
      "auctionEnd()": {
        "notice": "End the auction and send the highest bid to the beneficiary."
      },
      "withdraw()": {
        "notice": "Withdraw a bid that was overbid."
      }
    }
  }
}