{
  "contractName": "KSEAairdrop",
  "abi": [
    {
      "inputs": [
        {
          "internalType": "address",
          "name": "_dobbyToken",
          "type": "address"
        }
      ],
      "payable": false,
      "stateMutability": "nonpayable",
      "type": "constructor"
    },
    {
      "anonymous": false,
      "inputs": [
        {
          "indexed": true,
          "internalType": "address",
          "name": "_boardMember",
          "type": "address"
        },
        {
          "indexed": true,
          "internalType": "bool",
          "name": "_flag",
          "type": "bool"
        }
      ],
      "name": "DeregisteredBoardMember",
      "type": "event"
    },
    {
      "anonymous": false,
      "inputs": [
        {
          "indexed": true,
          "internalType": "address",
          "name": "_to",
          "type": "address"
        },
        {
          "indexed": false,
          "internalType": "uint256",
          "name": "_value",
          "type": "uint256"
        }
      ],
      "name": "EtherFailedTransfer",
      "type": "event"
    },
    {
      "anonymous": false,
      "inputs": [
        {
          "indexed": true,
          "internalType": "address",
          "name": "_to",
          "type": "address"
        },
        {
          "indexed": false,
          "internalType": "uint256",
          "name": "_value",
          "type": "uint256"
        }
      ],
      "name": "EtherTransferredToken",
      "type": "event"
    },
    {
      "anonymous": false,
      "inputs": [
        {
          "indexed": true,
          "internalType": "address",
          "name": "_to",
          "type": "address"
        },
        {
          "indexed": false,
          "internalType": "uint256",
          "name": "_value",
          "type": "uint256"
        }
      ],
      "name": "FailedTransfer",
      "type": "event"
    },
    {
      "anonymous": false,
      "inputs": [
        {
          "indexed": true,
          "internalType": "address",
          "name": "_boardMember",
          "type": "address"
        },
        {
          "indexed": true,
          "internalType": "bool",
          "name": "_flag",
          "type": "bool"
        }
      ],
      "name": "RegisteredBoardMember",
      "type": "event"
    },
    {
      "anonymous": false,
      "inputs": [
        {
          "indexed": true,
          "internalType": "address",
          "name": "_to",
          "type": "address"
        },
        {
          "indexed": false,
          "internalType": "uint256",
          "name": "_value",
          "type": "uint256"
        }
      ],
      "name": "TransferredToken",
      "type": "event"
    },
    {
      "constant": true,
      "inputs": [],
      "name": "owner",
      "outputs": [
        {
          "internalType": "address",
          "name": "",
          "type": "address"
        }
      ],
      "payable": false,
      "stateMutability": "view",
      "type": "function"
    },
    {
      "constant": false,
      "inputs": [
        {
          "internalType": "address",
          "name": "newOwner",
          "type": "address"
        }
      ],
      "name": "transferOwnership",
      "outputs": [],
      "payable": false,
      "stateMutability": "nonpayable",
      "type": "function"
    },
    {
      "constant": false,
      "inputs": [
        {
          "internalType": "address",
          "name": "_boardMember",
          "type": "address"
        }
      ],
      "name": "registerBoardMember",
      "outputs": [],
      "payable": false,
      "stateMutability": "nonpayable",
      "type": "function"
    },
    {
      "constant": false,
      "inputs": [
        {
          "internalType": "address",
          "name": "_boardMember",
          "type": "address"
        }
      ],
      "name": "deregisterBoardMember",
      "outputs": [],
      "payable": false,
      "stateMutability": "nonpayable",
      "type": "function"
    },
    {
      "constant": true,
      "inputs": [
        {
          "internalType": "address",
          "name": "_boardMember",
          "type": "address"
        }
      ],
      "name": "isBoardMember",
      "outputs": [
        {
          "internalType": "bool",
          "name": "",
          "type": "bool"
        }
      ],
      "payable": false,
      "stateMutability": "view",
      "type": "function"
    },
    {
      "constant": false,
      "inputs": [
        {
          "internalType": "address[]",
          "name": "_members",
          "type": "address[]"
        },
        {
          "internalType": "uint256",
          "name": "_value",
          "type": "uint256"
        },
        {
          "internalType": "bool",
          "name": "isEther",
          "type": "bool"
        }
      ],
      "name": "distributeTokens",
      "outputs": [],
      "payable": false,
      "stateMutability": "nonpayable",
      "type": "function"
    }
  ],
  "bytecode": "0x608060405234801561001057600080fd5b50604051610d81380380610d818339818101604052602081101561003357600080fd5b8101908080519060200190929190505050336000806101000a81548173ffffffffffffffffffffffffffffffffffffffff021916908373ffffffffffffffffffffffffffffffffffffffff16021790555080600160006101000a81548173ffffffffffffffffffffffffffffffffffffffff021916908373ffffffffffffffffffffffffffffffffffffffff16021790555050610cac806100d56000396000f3fe608060405234801561001057600080fd5b50600436106100625760003560e01c8063091a3765146100675780636c2a51aa146100f657806371942a011461013a5780638b6cb1a4146101965780638da5cb5b146101da578063f2fde38b14610224575b600080fd5b6100f46004803603606081101561007d57600080fd5b810190808035906020019064010000000081111561009a57600080fd5b8201836020820111156100ac57600080fd5b803590602001918460208302840111640100000000831117156100ce57600080fd5b909192939192939080359060200190929190803515159060200190929190505050610268565b005b6101386004803603602081101561010c57600080fd5b81019080803573ffffffffffffffffffffffffffffffffffffffff1690602001909291905050506103a5565b005b61017c6004803603602081101561015057600080fd5b81019080803573ffffffffffffffffffffffffffffffffffffffff169060200190929190505050610509565b604051808215151515815260200191505060405180910390f35b6101d8600480360360208110156101ac57600080fd5b81019080803573ffffffffffffffffffffffffffffffffffffffff16906020019092919050505061055f565b005b6101e26106c3565b604051808273ffffffffffffffffffffffffffffffffffffffff1673ffffffffffffffffffffffffffffffffffffffff16815260200191505060405180910390f35b6102666004803603602081101561023a57600080fd5b81019080803573ffffffffffffffffffffffffffffffffffffffff1690602001909291905050506106e8565b005b6001151561027533610509565b1515146102ea576040517f08c379a000000000000000000000000000000000000000000000000000000000815260040180806020018281038252601d8152602001807f596f7520617265206e6f742074686520626f617264206d656d6265722100000081525060200191505060405180910390fd5b60011515811515141561034d5760008090505b848490508110156103475761033a85858381811061031757fe5b9050602002013573ffffffffffffffffffffffffffffffffffffffff1684610827565b80806001019150506102fd565b5061039f565b60008090505b8484905081101561039d5761039085858381811061036d57fe5b9050602002013573ffffffffffffffffffffffffffffffffffffffff168461096d565b8080600101915050610353565b505b50505050565b6000809054906101000a900473ffffffffffffffffffffffffffffffffffffffff1673ffffffffffffffffffffffffffffffffffffffff163373ffffffffffffffffffffffffffffffffffffffff1614610467576040517f08c379a000000000000000000000000000000000000000000000000000000000815260040180806020018281038252601c8152602001807f4f776e61626c653a2063616c6c6572206973206e6f74206f776e65720000000081525060200191505060405180910390fd5b6001600260008373ffffffffffffffffffffffffffffffffffffffff1673ffffffffffffffffffffffffffffffffffffffff16815260200190815260200160002060006101000a81548160ff021916908315150217905550600115158173ffffffffffffffffffffffffffffffffffffffff167fe5d5c64157417aca4696b40e8384841fcb830a4e16c6be81c20e7191bec6d58260405160405180910390a350565b6000600260008373ffffffffffffffffffffffffffffffffffffffff1673ffffffffffffffffffffffffffffffffffffffff16815260200190815260200160002060009054906101000a900460ff169050919050565b6000809054906101000a900473ffffffffffffffffffffffffffffffffffffffff1673ffffffffffffffffffffffffffffffffffffffff163373ffffffffffffffffffffffffffffffffffffffff1614610621576040517f08c379a000000000000000000000000000000000000000000000000000000000815260040180806020018281038252601c8152602001807f4f776e61626c653a2063616c6c6572206973206e6f74206f776e65720000000081525060200191505060405180910390fd5b6000600260008373ffffffffffffffffffffffffffffffffffffffff1673ffffffffffffffffffffffffffffffffffffffff16815260200190815260200160002060006101000a81548160ff021916908315150217905550600115158173ffffffffffffffffffffffffffffffffffffffff167fad14f647fedc40d55fb9014869c2c18383f928a22ff9afcc65ee29cf9aeaa48160405160405180910390a350565b6000809054906101000a900473ffffffffffffffffffffffffffffffffffffffff1681565b6000809054906101000a900473ffffffffffffffffffffffffffffffffffffffff1673ffffffffffffffffffffffffffffffffffffffff163373ffffffffffffffffffffffffffffffffffffffff16146107aa576040517f08c379a000000000000000000000000000000000000000000000000000000000815260040180806020018281038252601c8152602001807f4f776e61626c653a2063616c6c6572206973206e6f74206f776e65720000000081525060200191505060405180910390fd5b600073ffffffffffffffffffffffffffffffffffffffff168173ffffffffffffffffffffffffffffffffffffffff1614156107e457600080fd5b806000806101000a81548173ffffffffffffffffffffffffffffffffffffffff021916908373ffffffffffffffffffffffffffffffffffffffff16021790555050565b600073ffffffffffffffffffffffffffffffffffffffff168273ffffffffffffffffffffffffffffffffffffffff16141561086157610969565b803373ffffffffffffffffffffffffffffffffffffffff163110610919573373ffffffffffffffffffffffffffffffffffffffff166108fc829081150290604051600060405180830381858888f193505050501580156108c5573d6000803e3d6000fd5b508173ffffffffffffffffffffffffffffffffffffffff167f4f1ec7b3ae22e95c22a894273f2833cbf773bea02a82cc6a9b442b6a54e3cacc826040518082815260200191505060405180910390a2610968565b8173ffffffffffffffffffffffffffffffffffffffff167ffd55e112a3ef2c572e95195d17a897a462e1935205727219816b08d68bdb255e826040518082815260200191505060405180910390a25b5b5050565b600073ffffffffffffffffffffffffffffffffffffffff168273ffffffffffffffffffffffffffffffffffffffff1614156109a757610b71565b806109b0610b75565b10610b2157600160009054906101000a900473ffffffffffffffffffffffffffffffffffffffff1673ffffffffffffffffffffffffffffffffffffffff166323b872dd3384846040518463ffffffff1660e01b8152600401808473ffffffffffffffffffffffffffffffffffffffff1673ffffffffffffffffffffffffffffffffffffffff1681526020018373ffffffffffffffffffffffffffffffffffffffff1673ffffffffffffffffffffffffffffffffffffffff1681526020018281526020019350505050602060405180830381600087803b158015610a9257600080fd5b505af1158015610aa6573d6000803e3d6000fd5b505050506040513d6020811015610abc57600080fd5b8101908080519060200190929190505050508173ffffffffffffffffffffffffffffffffffffffff167f69baa4ba19fc045bffcd13735ba5201d924fe4c49c78c2e214b8f2559044d8b1826040518082815260200191505060405180910390a2610b70565b8173ffffffffffffffffffffffffffffffffffffffff167f3506b32cea6b36a739c1c2a71a9e1b3d6222104389c07219059fa6eb6d2e0563826040518082815260200191505060405180910390a25b5b5050565b6000600160009054906101000a900473ffffffffffffffffffffffffffffffffffffffff1673ffffffffffffffffffffffffffffffffffffffff166370a082316000809054906101000a900473ffffffffffffffffffffffffffffffffffffffff166040518263ffffffff1660e01b8152600401808273ffffffffffffffffffffffffffffffffffffffff1673ffffffffffffffffffffffffffffffffffffffff16815260200191505060206040518083038186803b158015610c3757600080fd5b505afa158015610c4b573d6000803e3d6000fd5b505050506040513d6020811015610c6157600080fd5b810190808051906020019092919050505090509056fea265627a7a72315820b6c7a81f9e72d800278470bf39fdd0182fc2a0204e9b642c2f623a6f5a757d7864736f6c63430005100032",
  "source": "// SPDX-License-Identifier: UNLICENSED\r\npragma solidity >= 0.5.0 < 0.7.0;\r\n\r\n// import \"../../KSEAToken/contracts/SafeMath.sol\";\r\n// import \"../../KSEAToken/contracts/EIP20Interface.sol\";\r\nimport \"../../KSEAToken/contracts/KSEAToken.sol\";\r\n\r\ncontract Ownable {\r\n\r\n  address public owner;\r\n\r\n  constructor() public {\r\n    owner = msg.sender;\r\n  }\r\n\r\n  modifier onlyOwner() {\r\n    require(msg.sender == owner, \"Ownable: caller is not owner\");\r\n    _;\r\n  }\r\n\r\n  function transferOwnership(address newOwner) onlyOwner public {\r\n    require(newOwner != address(0));\r\n    owner = newOwner;\r\n  }\r\n}\r\n\r\n\r\ncontract KSEAairdrop is Ownable {\r\n    using SafeMath for uint256;\r\n\r\n    // DobbyFactory private dobbyFactory;\r\n    EIP20Interface private dobbyToken;\r\n    // EIP20Interface private semesterToken;\r\n\r\n    // Board Member mapping set up\r\n    mapping (address => bool) private boardMembers;\r\n\r\n    //event section\r\n    event RegisteredBoardMember(address indexed _boardMember, bool indexed _flag);\r\n    event DeregisteredBoardMember(address indexed _boardMember, bool indexed _flag);\r\n    event TransferredToken(address indexed _to, uint256 _value);\r\n    event FailedTransfer(address indexed _to, uint256 _value);\r\n    event EtherTransferredToken(address indexed _to, uint256 _value);\r\n    event EtherFailedTransfer(address indexed _to, uint256 _value);\r\n\r\n    constructor(address _dobbyToken) public {\r\n        dobbyToken = EIP20Interface(_dobbyToken);\r\n    }\r\n\r\n    // Register board member and emit Registered Board Member event \r\n    function registerBoardMember(address _boardMember) onlyOwner external {\r\n        boardMembers[_boardMember] = true;\r\n        emit RegisteredBoardMember(_boardMember, true);\r\n    }\r\n\r\n    // Deregister board member and emit Registered Board Member event \r\n    function deregisterBoardMember(address _boardMember) onlyOwner external {\r\n        boardMembers[_boardMember] = false;\r\n        emit DeregisteredBoardMember(_boardMember, true);\r\n    }\r\n\r\n    // Check if address corresponds to a Board Member \r\n    // TODO: This is currently a hack using Solidity internals \r\n    function isBoardMember(address _boardMember) public view returns (bool) {\r\n        return boardMembers[_boardMember]; // Notice Solidity initializes maps with False \r\n    }\r\n \r\n    // Distribute tokens to a list of members \r\n    function distributeTokens(address[] calldata _members, uint256 _value, bool isEther) external {\r\n        require(isBoardMember(msg.sender) == true, \"You are not the board member!\");\r\n        if (isEther == true) { \r\n            for (uint i = 0; i < _members.length; i++) {\r\n                sendInternallyEther(_members[i], _value);\r\n            }\r\n        } else { \r\n            for (uint i = 0; i < _members.length; i++) {\r\n                sendInternallyDobby(_members[i], _value);\r\n            }\r\n        }\r\n    }\r\n\r\n    // Distribute Ether to one recipient \r\n    function sendInternallyEther(address recipient, uint256 tokensToSend) internal { \r\n        if (recipient == address(0)) return;\r\n        if (msg.sender.balance >= tokensToSend) { \r\n            msg.sender.transfer(tokensToSend); \r\n            emit EtherTransferredToken(recipient, tokensToSend); \r\n        } else { \r\n            emit EtherFailedTransfer(recipient, tokensToSend); \r\n        }\r\n    }\r\n\r\n    // Distribute Dobby to one recipient \r\n    function sendInternallyDobby(address recipient, uint256 tokensToSend) internal { \r\n        if (recipient == address(0)) return;\r\n        if (tokensAvailable() >= tokensToSend) {\r\n            dobbyToken.transferFrom(msg.sender, recipient, tokensToSend);\r\n            emit TransferredToken(recipient, tokensToSend);\r\n        } else {\r\n            emit FailedTransfer(recipient, tokensToSend); \r\n        }\r\n    }\r\n\r\n    // Check how much tokens are currently available \r\n    function tokensAvailable() view internal returns (uint256) {\r\n        return dobbyToken.balanceOf(owner);\r\n    }  \r\n}",
  "sourcePath": "C:/Users/Lenovo/Desktop/Project/KSEA/ksea-token/dobby/contracts/KSEAirdrop.sol",
  "compiler": {
    "name": "solc",
    "version": "0.5.16+commit.9c3226ce.Emscripten.clang"
  },
  "schemaVersion": "3.3.0",
  "updatedAt": "2020-10-25T05:18:59.430Z",
  "devdoc": {
    "methods": {}
  },
  "userdoc": {
    "methods": {}
  }
}