{
  "contractName": "KSEADobby",
  "abi": [
    {
      "inputs": [
        {
          "internalType": "address",
          "name": "_dobbyToken",
          "type": "address"
        }
      ],
      "payable": false,
      "stateMutability": "nonpayable",
      "type": "constructor"
    },
    {
      "anonymous": false,
      "inputs": [
        {
          "indexed": true,
          "internalType": "address",
          "name": "_boardMember",
          "type": "address"
        },
        {
          "indexed": true,
          "internalType": "bool",
          "name": "_flag",
          "type": "bool"
        }
      ],
      "name": "DeregisterBoardMember",
      "type": "event"
    },
    {
      "anonymous": false,
      "inputs": [
        {
          "indexed": true,
          "internalType": "address",
          "name": "_to",
          "type": "address"
        },
        {
          "indexed": false,
          "internalType": "uint256",
          "name": "_value",
          "type": "uint256"
        }
      ],
      "name": "FailedTransfer",
      "type": "event"
    },
    {
      "anonymous": false,
      "inputs": [
        {
          "indexed": true,
          "internalType": "address",
          "name": "_boardMember",
          "type": "address"
        },
        {
          "indexed": true,
          "internalType": "bool",
          "name": "_flag",
          "type": "bool"
        }
      ],
      "name": "RegisterBoardMember",
      "type": "event"
    },
    {
      "anonymous": false,
      "inputs": [
        {
          "indexed": true,
          "internalType": "address",
          "name": "_to",
          "type": "address"
        },
        {
          "indexed": false,
          "internalType": "uint256",
          "name": "_value",
          "type": "uint256"
        }
      ],
      "name": "TransferredToken",
      "type": "event"
    },
    {
      "constant": true,
      "inputs": [],
      "name": "owner",
      "outputs": [
        {
          "internalType": "address",
          "name": "",
          "type": "address"
        }
      ],
      "payable": false,
      "stateMutability": "view",
      "type": "function"
    },
    {
      "constant": false,
      "inputs": [
        {
          "internalType": "address",
          "name": "newOwner",
          "type": "address"
        }
      ],
      "name": "transferOwnership",
      "outputs": [],
      "payable": false,
      "stateMutability": "nonpayable",
      "type": "function"
    },
    {
      "constant": false,
      "inputs": [
        {
          "internalType": "address",
          "name": "_boardMember",
          "type": "address"
        }
      ],
      "name": "registerBoardMember",
      "outputs": [],
      "payable": false,
      "stateMutability": "nonpayable",
      "type": "function"
    },
    {
      "constant": false,
      "inputs": [
        {
          "internalType": "address",
          "name": "_boardMember",
          "type": "address"
        }
      ],
      "name": "deregisterBoardMember",
      "outputs": [],
      "payable": false,
      "stateMutability": "nonpayable",
      "type": "function"
    },
    {
      "constant": true,
      "inputs": [
        {
          "internalType": "address",
          "name": "_boardMember",
          "type": "address"
        }
      ],
      "name": "isBoardMember",
      "outputs": [
        {
          "internalType": "bool",
          "name": "",
          "type": "bool"
        }
      ],
      "payable": false,
      "stateMutability": "view",
      "type": "function"
    },
    {
      "constant": false,
      "inputs": [
        {
          "internalType": "address[]",
          "name": "_members",
          "type": "address[]"
        },
        {
          "internalType": "uint256",
          "name": "_value",
          "type": "uint256"
        }
      ],
      "name": "distributeTokens",
      "outputs": [],
      "payable": false,
      "stateMutability": "nonpayable",
      "type": "function"
    },
    {
      "constant": false,
      "inputs": [
        {
          "internalType": "address",
          "name": "recipient",
          "type": "address"
        },
        {
          "internalType": "uint256",
          "name": "tokensToSend",
          "type": "uint256"
        }
      ],
      "name": "sendInternally",
      "outputs": [],
      "payable": false,
      "stateMutability": "nonpayable",
      "type": "function"
    },
    {
      "constant": false,
      "inputs": [
        {
          "internalType": "address[]",
          "name": "_members",
          "type": "address[]"
        },
        {
          "internalType": "uint256",
          "name": "_value",
          "type": "uint256"
        }
      ],
      "name": "distributeEther",
      "outputs": [],
      "payable": false,
      "stateMutability": "nonpayable",
      "type": "function"
    },
    {
      "constant": true,
      "inputs": [],
      "name": "tokensAvailable",
      "outputs": [
        {
          "internalType": "uint256",
          "name": "",
          "type": "uint256"
        }
      ],
      "payable": false,
      "stateMutability": "view",
      "type": "function"
    },
    {
      "constant": false,
      "inputs": [
        {
          "internalType": "address",
          "name": "_curSemester",
          "type": "address"
        },
        {
          "internalType": "address[]",
          "name": "_memberAccount",
          "type": "address[]"
        }
      ],
      "name": "exchangeToDobby",
      "outputs": [],
      "payable": false,
      "stateMutability": "nonpayable",
      "type": "function"
    }
  ],
  "bytecode": "0x608060405234801561001057600080fd5b5060405161108c38038061108c8339818101604052602081101561003357600080fd5b8101908080519060200190929190505050336000806101000a81548173ffffffffffffffffffffffffffffffffffffffff021916908373ffffffffffffffffffffffffffffffffffffffff16021790555080600160006101000a81548173ffffffffffffffffffffffffffffffffffffffff021916908373ffffffffffffffffffffffffffffffffffffffff16021790555050610fb7806100d56000396000f3fe608060405234801561001057600080fd5b506004361061009e5760003560e01c80638da5cb5b116100665780638da5cb5b146102285780638f8939eb14610272578063b66bf050146102f5578063c8a1e1c7146103cd578063f2fde38b1461041b5761009e565b8063256fa241146100a357806360659a92146101265780636c2a51aa1461014457806371942a01146101885780638b6cb1a4146101e4575b600080fd5b610124600480360360408110156100b957600080fd5b81019080803590602001906401000000008111156100d657600080fd5b8201836020820111156100e857600080fd5b8035906020019184602083028401116401000000008311171561010a57600080fd5b90919293919293908035906020019092919050505061045f565b005b61012e6105f9565b6040518082815260200191505060405180910390f35b6101866004803603602081101561015a57600080fd5b81019080803573ffffffffffffffffffffffffffffffffffffffff1690602001909291905050506106fb565b005b6101ca6004803603602081101561019e57600080fd5b81019080803573ffffffffffffffffffffffffffffffffffffffff16906020019092919050505061085f565b604051808215151515815260200191505060405180910390f35b610226600480360360208110156101fa57600080fd5b81019080803573ffffffffffffffffffffffffffffffffffffffff1690602001909291905050506108b5565b005b610230610a19565b604051808273ffffffffffffffffffffffffffffffffffffffff1673ffffffffffffffffffffffffffffffffffffffff16815260200191505060405180910390f35b6102f36004803603604081101561028857600080fd5b81019080803590602001906401000000008111156102a557600080fd5b8201836020820111156102b757600080fd5b803590602001918460208302840111640100000000831117156102d957600080fd5b909192939192939080359060200190929190505050610a3e565b005b6103cb6004803603604081101561030b57600080fd5b81019080803573ffffffffffffffffffffffffffffffffffffffff1690602001909291908035906020019064010000000081111561034857600080fd5b82018360208201111561035a57600080fd5b8035906020019184602083028401116401000000008311171561037c57600080fd5b919080806020026020016040519081016040528093929190818152602001838360200280828437600081840152601f19601f820116905080830192505050505050509192919290505050610b05565b005b610419600480360360408110156103e357600080fd5b81019080803573ffffffffffffffffffffffffffffffffffffffff16906020019092919080359060200190929190505050610c76565b005b61045d6004803603602081101561043157600080fd5b81019080803573ffffffffffffffffffffffffffffffffffffffff169060200190929190505050610e43565b005b6000809054906101000a900473ffffffffffffffffffffffffffffffffffffffff1673ffffffffffffffffffffffffffffffffffffffff163373ffffffffffffffffffffffffffffffffffffffff1614610521576040517f08c379a000000000000000000000000000000000000000000000000000000000815260040180806020018281038252601c8152602001807f4f776e61626c653a2063616c6c6572206973206e6f74206f776e65720000000081525060200191505060405180910390fd5b6001151561052e3361085f565b1515146105a3576040517f08c379a000000000000000000000000000000000000000000000000000000000815260040180806020018281038252601d8152602001807f596f7520617265206e6f742074686520626f617264206d656d6265722100000081525060200191505060405180910390fd5b60008090505b838390508110156105f3576105e68484838181106105c357fe5b9050602002013573ffffffffffffffffffffffffffffffffffffffff1683610c76565b80806001019150506105a9565b50505050565b6000600160009054906101000a900473ffffffffffffffffffffffffffffffffffffffff1673ffffffffffffffffffffffffffffffffffffffff166370a082316000809054906101000a900473ffffffffffffffffffffffffffffffffffffffff166040518263ffffffff1660e01b8152600401808273ffffffffffffffffffffffffffffffffffffffff1673ffffffffffffffffffffffffffffffffffffffff16815260200191505060206040518083038186803b1580156106bb57600080fd5b505afa1580156106cf573d6000803e3d6000fd5b505050506040513d60208110156106e557600080fd5b8101908080519060200190929190505050905090565b6000809054906101000a900473ffffffffffffffffffffffffffffffffffffffff1673ffffffffffffffffffffffffffffffffffffffff163373ffffffffffffffffffffffffffffffffffffffff16146107bd576040517f08c379a000000000000000000000000000000000000000000000000000000000815260040180806020018281038252601c8152602001807f4f776e61626c653a2063616c6c6572206973206e6f74206f776e65720000000081525060200191505060405180910390fd5b6001600360008373ffffffffffffffffffffffffffffffffffffffff1673ffffffffffffffffffffffffffffffffffffffff16815260200190815260200160002060006101000a81548160ff021916908315150217905550600115158173ffffffffffffffffffffffffffffffffffffffff167ff3c0e06ac7ccae68c9f5524ac632dd7861f61dec7b7a52c1d482c08b545c2dc960405160405180910390a350565b6000600360008373ffffffffffffffffffffffffffffffffffffffff1673ffffffffffffffffffffffffffffffffffffffff16815260200190815260200160002060009054906101000a900460ff169050919050565b6000809054906101000a900473ffffffffffffffffffffffffffffffffffffffff1673ffffffffffffffffffffffffffffffffffffffff163373ffffffffffffffffffffffffffffffffffffffff1614610977576040517f08c379a000000000000000000000000000000000000000000000000000000000815260040180806020018281038252601c8152602001807f4f776e61626c653a2063616c6c6572206973206e6f74206f776e65720000000081525060200191505060405180910390fd5b6000600360008373ffffffffffffffffffffffffffffffffffffffff1673ffffffffffffffffffffffffffffffffffffffff16815260200190815260200160002060006101000a81548160ff021916908315150217905550600015158173ffffffffffffffffffffffffffffffffffffffff167fc2766bfcc300e7c62f85f17e5d92cefbf75386fcbc0f862b4be79a8903a6058b60405160405180910390a350565b6000809054906101000a900473ffffffffffffffffffffffffffffffffffffffff1681565b6000809054906101000a900473ffffffffffffffffffffffffffffffffffffffff1673ffffffffffffffffffffffffffffffffffffffff163373ffffffffffffffffffffffffffffffffffffffff1614610b00576040517f08c379a000000000000000000000000000000000000000000000000000000000815260040180806020018281038252601c8152602001807f4f776e61626c653a2063616c6c6572206973206e6f74206f776e65720000000081525060200191505060405180910390fd5b505050565b81600260006101000a81548173ffffffffffffffffffffffffffffffffffffffff021916908373ffffffffffffffffffffffffffffffffffffffff16021790555060008090505b8151811015610c71576000600260009054906101000a900473ffffffffffffffffffffffffffffffffffffffff1673ffffffffffffffffffffffffffffffffffffffff166370a08231848481518110610ba157fe5b60200260200101516040518263ffffffff1660e01b8152600401808273ffffffffffffffffffffffffffffffffffffffff1673ffffffffffffffffffffffffffffffffffffffff16815260200191505060206040518083038186803b158015610c0957600080fd5b505afa158015610c1d573d6000803e3d6000fd5b505050506040513d6020811015610c3357600080fd5b81019080805190602001909291905050509050610c63838381518110610c5557fe5b602002602001015182610c76565b818060010192505050610b4c565b505050565b600073ffffffffffffffffffffffffffffffffffffffff168273ffffffffffffffffffffffffffffffffffffffff161415610cb057610e3f565b600115610def57600160009054906101000a900473ffffffffffffffffffffffffffffffffffffffff1673ffffffffffffffffffffffffffffffffffffffff1663a9059cbb83836040518363ffffffff1660e01b8152600401808373ffffffffffffffffffffffffffffffffffffffff1673ffffffffffffffffffffffffffffffffffffffff16815260200182815260200192505050602060405180830381600087803b158015610d6057600080fd5b505af1158015610d74573d6000803e3d6000fd5b505050506040513d6020811015610d8a57600080fd5b8101908080519060200190929190505050508173ffffffffffffffffffffffffffffffffffffffff167f69baa4ba19fc045bffcd13735ba5201d924fe4c49c78c2e214b8f2559044d8b1826040518082815260200191505060405180910390a2610e3e565b8173ffffffffffffffffffffffffffffffffffffffff167f3506b32cea6b36a739c1c2a71a9e1b3d6222104389c07219059fa6eb6d2e0563826040518082815260200191505060405180910390a25b5b5050565b6000809054906101000a900473ffffffffffffffffffffffffffffffffffffffff1673ffffffffffffffffffffffffffffffffffffffff163373ffffffffffffffffffffffffffffffffffffffff1614610f05576040517f08c379a000000000000000000000000000000000000000000000000000000000815260040180806020018281038252601c8152602001807f4f776e61626c653a2063616c6c6572206973206e6f74206f776e65720000000081525060200191505060405180910390fd5b600073ffffffffffffffffffffffffffffffffffffffff168173ffffffffffffffffffffffffffffffffffffffff161415610f3f57600080fd5b806000806101000a81548173ffffffffffffffffffffffffffffffffffffffff021916908373ffffffffffffffffffffffffffffffffffffffff1602179055505056fea265627a7a72315820216ee74c068a7a6b00a682ac4234a886489d6bfd5afef8d91979cf4370bee00364736f6c63430005100032",
  "source": "pragma solidity >= 0.5.0 < 0.7.0;\r\n\r\nimport \"../../KSEAToken/contracts/SafeMath.sol\";\r\nimport \"../../KSEAToken/contracts/EIP20Interface.sol\";\r\nimport \"../../KSEAToken/contracts/KSEAToken.sol\";\r\n\r\n// contract DobbyFactory {\r\n//     function createDobby(\r\n//         uint256 calldata _initialSupply,\r\n//         string calldata _name,\r\n//         string calldata _symbol\r\n//     ) external returns (address) {\r\n//         KSEAToken instance = new KSEAToken(_initialSupply, _name, _symbol);\r\n//         // p.transferOwnership(msg.sender);\r\n//         address addr = address(instance);\r\n\r\n//         return addr;\r\n//     }\r\n// }\r\n\r\ncontract Ownable {\r\n\r\n  address public owner;\r\n\r\n  constructor() public {\r\n    owner = msg.sender;\r\n  }\r\n\r\n  modifier onlyOwner() {\r\n    require(msg.sender == owner, \"Ownable: caller is not owner\");\r\n    _;\r\n  }\r\n\r\n  function transferOwnership(address newOwner) onlyOwner public {\r\n    require(newOwner != address(0));\r\n    owner = newOwner;\r\n  }\r\n}\r\n\r\n\r\ncontract KSEADobby is Ownable {\r\n    using SafeMath for uint256;\r\n\r\n    // DobbyFactory private dobbyFactory;\r\n    EIP20Interface private dobbyToken;\r\n    EIP20Interface private semesterToken;\r\n\r\n    //mapping, struct, variable Set up\r\n    mapping (address => bool) private boardMembers;\r\n\r\n    //event section\r\n    event RegisterBoardMember(address indexed _boardMember, bool indexed _flag);\r\n    event DeregisterBoardMember(address indexed _boardMember, bool indexed _flag);\r\n    event TransferredToken(address indexed _to, uint256 _value);\r\n    event FailedTransfer(address indexed _to, uint256 _value);\r\n\r\n    constructor(address _dobbyToken) public {\r\n        //dobbyFactory = DobbyFactory(_dobbyFactory);\r\n        dobbyToken = EIP20Interface(_dobbyToken);\r\n    }\r\n\r\n    //board member mamagement\r\n    function registerBoardMember(address _boardMember) onlyOwner external {\r\n        boardMembers[_boardMember] = true;\r\n        emit RegisterBoardMember(_boardMember, true);\r\n    }\r\n\r\n    function deregisterBoardMember(address _boardMember) onlyOwner external {\r\n        boardMembers[_boardMember] = false;\r\n        emit DeregisterBoardMember(_boardMember, false);\r\n    }\r\n\r\n    function isBoardMember(address _boardMember) public view returns (bool) {\r\n        return boardMembers[_boardMember];\r\n    }\r\n \r\n    //send tokens to users \r\n    function distributeTokens(address[] calldata _members, uint256 _value) onlyOwner external {\r\n        require(isBoardMember(msg.sender) == true, \"You are not the board member!\");\r\n        uint256 i = 0;\r\n        while (i < _members.length) {\r\n            sendInternally(_members[i], _value);\r\n            i++;\r\n        }\r\n    }\r\n\r\n    function sendInternally(address recipient, uint256 tokensToSend) public {\r\n        if(recipient == address(0)) return;\r\n\r\n        if(true) {\r\n        dobbyToken.transfer(recipient, tokensToSend);\r\n        emit TransferredToken(recipient, tokensToSend);\r\n        } else {\r\n        emit FailedTransfer(recipient, tokensToSend); \r\n        }\r\n    }  \r\n\r\n    function distributeEther(address[] calldata _members, uint256 _value) onlyOwner external {\r\n\r\n    } \r\n\r\n    function tokensAvailable() view public returns (uint256) {\r\n        return dobbyToken.balanceOf(owner);\r\n    }  \r\n\r\n    //exchange semester token to dobby token. Don't literally exchange semester token. Just give semester token amount of dobby token. They can keep their semester token. \r\n    function exchangeToDobby(address _curSemester, address[] memory _memberAccount) public {\r\n        semesterToken = EIP20Interface(_curSemester);\r\n        uint256 i = 0;\r\n        while (i < _memberAccount.length) {\r\n            uint256 semBal = semesterToken.balanceOf(_memberAccount[i]);\r\n            sendInternally(_memberAccount[i], semBal);\r\n            i++;\r\n        }\r\n    }\r\n\r\n    //implement Auction \r\n\r\n\r\n    // function getBalance(address _member) public returns(uint256) {\r\n    //     return \r\n    // }   \r\n}",
  "sourcePath": "C:\\Users\\iskys\\Desktop\\project-dev\\ksea\\ksea-token\\dobby\\contracts\\kseaDobby.sol",
  "compiler": {
    "name": "solc",
    "version": "0.5.16+commit.9c3226ce.Emscripten.clang"
  },
  "schemaVersion": "3.2.2",
  "updatedAt": "2020-10-18T16:48:43.295Z",
  "networkType": "ethereum",
  "devdoc": {
    "methods": {}
  },
  "userdoc": {
    "methods": {}
  }
}